:020000040000FA
:1000000000800020890C0000810C0000830C00009F
:1000100000000000000000000000000000000000E0
:10002000000000000000000000000000810C000043
:100030000000000000000000810C0000B90C00006E
:10004000810C0000810C0000810C0000810C00007C
:10005000810C0000810C0000810C0000810C00006C
:10006000810C0000810C0000810C0000810C00005C
:10007000810C0000810C0000810C0000810C00004C
:10008000810C0000810C0000810C0000810C00003C
:10009000810C0000810C0000810C0000810C00002C
:1000A000810C0000810C0000810C0000810C00001C
:1000B000810C0000810C0000810C0000810C00000C
:1000C0000000000000000000000000000000000030
:1000D0000000000000000000000000000000000020
:1000E0000800001000000000C511213500000000CC
:1000F0000000000000000000000000000000000000
:1001000000F002F800F04EF812A030C808382418A9
:100110002D18AC4201D100F045F80FCCA246AB46F9
:100120000CA730CF2D1B083F3F197C427F1E544443
:100130002D090426F441641EAC4201D300F032F8CC
:100140000126334200D0FB1A3343984754465D469C
:10015000DFE70000EC1600000C170000103A02D395
:1001600078C878C1FAD8520701D330C830C101D558
:1001700004680C60704700007047000000230024F2
:1001800000250026103A01D378C1FBD8520700D3CE
:1001900030C100D50B6070471FB500F0BBF81FBD24
:1001A00010B510BD03488546FFF7F6FF01F0B6F81D
:1001B00000F096F80080002003B4FFF7F1FF03BCC5
:1001C00000F098F870B505460C46164602E00FCCD4
:1001D0000FC5103E102EFAD2082E02D303CC03C551
:1001E000083E042E07D301CC01C5361F03E0217859
:1001F0002970641C6D1C761EF9D270BD00000000D1
:10020000801C800803D0401C801EFCD100BF7047BA
:10021000EFF3108072B6704780F310887047F8B51E
:10022000042A2CD3830712D00B78491C0370401C7E
:10023000521E83070BD00B78491C0370401C521EC2
:10024000830704D00B78491C0370401C521E8B0797
:100250009B0F05D0C91ADF002023DE1B08C90AE066
:10026000FFF7B0FFF8BD1D4608C9FD401C46B4406D
:100270002C4310C0121F042AF5D2F308C91A521ECB
:10028000F0D40B78491C0370401C521EEAD40B7842
:10029000491C0370401C012AE4D409780170F8BDA0
:1002A00001E004C0091F0429FBD28B0701D502809D
:1002B000801CC90700D00270704700290BD0C3070B
:1002C00002D00270401C491E022904D3830702D5C4
:1002D0000280801C891EE3E70022EEE70022DFE7B0
:1002E00010B50446C046C0462046FFF765FF10BD66
:1002F0007047000001491820ABBEFEE7260002004F
:10030000D2B210B513029A1813049A18FFF7D5FF4A
:1003100010BD000008487CB5784400900748784438
:10032000009C0546019004E02046016808188047BB
:10033000241DAC42F8D17CBD4415000042150000DC
:10034000F0B583B000284BD0002A49D01368002BA9
:1003500001D0402400E04424012502958D40055140
:10036000032601964E4357680C4607213B070F4072
:10037000B740B14086688E433E438660D90F0094F3
:10038000A1408369AB430B438361A4000F231D4647
:10039000A540FF260746B743124EB959A943157A1F
:1003A0001D40A5400D43BD51D168019C2140009BDB
:1003B0005B0099409C40C368A3430B43C360029C0D
:1003C000210683688B431169C907C90959188160DF
:1003D000610683688B435169C9078909591881608F
:1003E00003B0F0BD0000FEFFF0B583B01E46054629
:1003F000212001272F542C462134002300291FD00F
:10040000012908D003296FD10020E8622863092060
:1004100041014F4871E04E4840780F2202402F467C
:1004200044370123022E23D83C460027EF622F6376
:10043000012E394600D01146102863D3384662E0B9
:10044000E96A002950D0286B81424DD2401A82B20D
:10045000002A49D0082A00D3082202AE2846334693
:1004600000F042FE3078E96A0818E86201233BE0B8
:1004700001090E2917D8002A15D0022A34D13A468C
:100480001F46334801786818DC301288511AB21EB2
:1004900093B2994200DB11468AB22D49891CFFF7BD
:1004A000BEFE3B4620E00F281ED828460193194681
:1004B00000F0A0FC264A5078002810D110780628B9
:1004C0000DD1B87D91780140917008D0286D0168F8
:1004D000002904D0A078002801D001988847012085
:1004E0002071B01EE884019B2079002801D01F46AE
:1004F00005E00920410116481F46FFF7EFFE384688
:1005000003B0F0BD0120012E1A4600D00246012A98
:10051000F5D102290CD120880D4909788842EED9FD
:100520002A46DC32511810180830E9622863DEE7E9
:1005300000270029E3D10648C0570028DFD4294608
:100540005431C0B22A46DC320818E8622A63CEE78A
:100550005803002080B500F0B9FC80BDF0B58DB027
:1005600000286BD0002969D0002A67D00446139870
:10057000022863D87B20800020180C902546213566
:10058000204648300A9027468E372D4800262023E3
:1005900008930B91314606921A4600F050FB242234
:1005A0000C98314600F04BFB092042010792254888
:1005B000314600F044FB01210991080268522E7176
:1005C000E684EE71E66406982065EE702E70EE7497
:1005D0002046D230E062E686204654308021FFF784
:1005E0007BFE7E713E71079B180AF870D81CB870AC
:1005F0007E70089939700C98818011490160124809
:1006000000680A9A907311881174000AD073080A5E
:1006100050740B980168027A0546049603930948C2
:100620000290019409480090FE23204600F0EEFB62
:100630000998000669688A6802438A600DB0F0BDB7
:10064000380300205803002044F2FF0FE9030000A4
:10065000F0B585B01F4601920C4606460C20484373
:1006600030187B2189004518FFF7D2FD0290E888F9
:10067000A988EA888B1A3A46083292B20493039208
:10068000934220DB0A9900912A6801991154421C77
:1006900092B22B689F54821C92B22B689F543A0AE4
:1006A000C31C9BB2314626462C68E25434460E46A3
:1006B000001D80B22A68101800993A46FFF7AFFD76
:1006C000381DE98815E0EA88891A042913DB2968AE
:1006D00081220A54411C89B22A6800235354811C88
:1006E00089B22A685354C01C80B229680B54E88828
:1006F00004214018E8800298FFF78EFD304621461D
:1007000000F04AF804980399884201DA002000E0DA
:10071000012005B0F0BDF0B581B0044606465A365A
:10072000C8071DD07B2080002718FFF771FD054604
:10073000388900280DD0398938684118FA883B89F2
:10074000D21AFFF76CFD3889F988081AF880002062
:1007500038812846FFF760FD0021204600F01CF894
:10076000FFF756FD0546307800280AD02046233092
:10077000007800280BD0206D0168002907D00020E8
:1007800004E0206D0168002901D001208847284637
:10079000FFF742FD01B0F0BDF0B583B00C46054651
:1007A0000C20484328187B2189004618FFF730FDAC
:1007B00032460290F0882F465A372E46D23600280D
:1007C0001FD0284623301168002C019203D10A78EB
:1007D00032704A7872700122A2403B7813438A78C3
:1007E000C9783B7009028918091D019A11810078A6
:1007F000002814D0286D0168002910D000208847F7
:100800000DE091881068FFF767FD002C02D10020F1
:10081000707030700120A04039788143397002989F
:10082000FFF7FAFC03B0F0BD04462320205C00284B
:1008300005D0206D0168002901D0012088470021E2
:10084000204600F0D7FA052000F002FA72B6206DBB
:100850008168002901D000208847BFF34F8F0348EB
:1008600003490160BFF34F8F00BFFDE70CED00E0CF
:100870000400FA0510B5442402530164443002997F
:100880000A0A427501758180438010BD882281501B
:1008900070475423C154543042707047F0B58BB048
:1008A00004462520205C002800D125E1934B587890
:1008B0000F2800D914E1E08C05901E780AA80521C4
:1008C000039101700020079004900690206D076A44
:1008D000002F0DD00AA8019009A800909A1C1D466F
:1008E0000598C3B220463146B8472B4600282BD185
:1008F00030462C380F280FD87844007940008744C0
:100900002307230707232036202020202007200745
:100910000AA80A210170D9E0B01F06280FD8C046E6
:100920007844007940008744030C630C54497200FA
:1009300099782046FFF7EFFE0AA80499EAE7702E9F
:10094000E6D00AA803990170F0203040402800D07A
:10095000BCE0E56C002D00D1B8E00598C2B29B1C4C
:1009600020463146A84702460AA80270B0E09878AF
:10097000492869D12546E4352646DC362021304613
:10098000FFF7AAFC00F072F90791069006A9082269
:10099000304600F04BF95A484168C9B2090929703C
:1009A0000068C0B20009687056480168A9700AA9B9
:1009B00002220A700068000AE87087E0206DC168B2
:1009C000002900D182E098788847801C0AA9087025
:1009D0007CE01A46206DC369002B57D0816900293D
:1009E00054D09078502844D100210120024649E09B
:1009F0000598C0B2022869D39878522866D1D87871
:100A0000002824D0012861D12046FFF70DFF05986A
:100A1000C0B204285AD39878462857D109A9022091
:100A20000870D97801293DD11D46206D0369002B3E
:100A30002FD0A8882146DC310022984709A90870E8
:100A400001062AD0072229E00AA8092162E77B20B3
:100A500080002518A9882868FFF73EFC04982881A3
:100A6000E88007212046FFF756FE204600F018FBDD
:100A700009E001208847002808D0206DC3690020C4
:100A80000122014698470AA8022143E70AA80399D0
:100A900040E707220121022001E00222E9780AABA7
:100AA0001A702B4600290CD1216D4A69002A08D002
:100AB00098882146DC31904709A908700AA90322C9
:100AC0000A70000602D00AA8072123E70AA80278C4
:100AD000002A05D00499009120460B46FFF7B8FD87
:100AE00025462535092041010448FFF7F7FB002181
:100AF0002970204600F07EF90BB0F0BD58030020AD
:100B0000E80F00F044F2FF0F7C23C1547C30130A3D
:100B1000C3708270090A4170704710B514460029ED
:100B200001D104195434029A20461946FFF777FB85
:100B300010BDF0B584B04C7803948C780294CC78D6
:100B400001944C7900948E79CD790C7809796827D5
:100B5000C1556421445401466831CD708E70009CAB
:100B60004C7001466431019CCC70029C8C70039CDB
:100B70004C705178039191780291D1780191567916
:100B80009779D47911781279702542556C22815465
:100B900001467031CC708F704E7001466C31019AF5
:100BA000CA70029A8A70039A4A7059780391D97868
:100BB00002919C785D79DE799F7919781B7978228A
:100BC000835474228154014678318F70CE704D70F9
:100BD000743084700299C1700399417004B0F0BD03
:100BE00080B55848006819210140554810290CD19A
:100BF000016880290BD10021016009480078032891
:100C000005D0022804D0084803E00021016080BD1F
:100C1000044800680168406881F308888047FEE75F
:100C2000D000002080FE030080FF0300002A05D0D2
:100C30000B780370491C401C521EF9D1704780B5D7
:100C4000002A04D00B4611461A46FFF759FB80BD17
:100C500080B505490978002901D1182100E030212B
:100C60004843FFF7CDFA80BD10010020024800681C
:100C7000024909687047C04678F2FF0F7CF2FF0F07
:100C8000FEE7FEE770470000FFF7AAFF1F48204974
:100C9000016072B6054C0649C0222046FFF792FA61
:100CA00004480460BFF34F8FFFF72AFA00000020CA
:100CB0000000000008ED00E00E480168C90317D5E8
:100CC0000D490A88002A02D0501E08807047002271
:100CD0000A800A490968002902D0104901220A70D5
:100CE0000168022291430160016801229143016081
:100CF0007047C04610E000E03003002034030020BD
:100D000002480349016072B67047C046380003408C
:100D10006588EDAC01480121017070471101002088
:100D2000074880210160074819210160BFF34F8FF8
:100D3000054806490160BFF34F8F00BFFDE7C0467D
:100D4000C0000020540003400CED00E00400FA0550
:100D5000F0B581B00121002844D05622825C0346C0
:100D600056335B781B029A18204B9A423AD102798B
:100D700043791B029A1883791B04C4792406E3186B
:100D80009A182FD0037844782402E3188478240436
:100D9000C5782D062C19E318D418A40C22D1582498
:100DA000045D583045782D022C1985782D04C078C3
:100DB00000064019001900900020C6430C4D1F7812
:100DC00077403E07B60EAE593F0977403E07B60E54
:100DD000AC593E0966405B1C521EF0D1009A564049
:100DE000721C00D0084601B0F0BDC0464649000064
:100DF000001800008171002907D10168C279002A1A
:100E000003D00022C2710120C8667047F0B587B0D8
:100E1000059302920546002068820860294B0B6604
:100E2000C8660122069253020193CE181304736020
:100E30000324220200928C1863603D239B01CA1890
:100E400003929060C243CA501F23DB01CF18B860E1
:100E5000CA503F239B01CF180497B860CA507F2027
:100E60004004029F7A0010180A682061FF200830B1
:100E7000019BC850009BC850069BDB0713430B60C7
:100E800004227260626062680F4B1A40626072688E
:100E90001A4072603A30039A9060059868712F7119
:100EA0000220287229601098E8610D98A8610C98BA
:100EB00068610F9828820E98E86006980499886007
:100EC00007B0F0BD88280040FFFFFEFFF0B589B0F5
:100ED00004463D208001216808910B18DF680F50FF
:100EE00081201F263F21DA683A42069301D0DA6852
:100EF000974361220D238000F50107958E01FF21A4
:100F000002313D4604910D4069426941002D00D0F7
:100F10000027D20003929A010292089D281805909A
:100F200007982B18A8190790F80640D50193207A46
:100F3000042823D003982918608A049AFE3209688D
:100F40001140082900D3082141188AB2904208D2E2
:100F5000029BEB18E5681E682E54401C8242F9D1B2
:100F600008466082052222726569A069638A0126AB
:100F70003146A847014607980660089D0020608218
:100F800001200204059E33681343336033689343A2
:100F90003360019B9A6882439A601860069EB0682D
:100FA00010229043B060022020723020306078061A
:100FB00002D4002929D02EE0207A022823D1686E9D
:100FC000C00604D40520207200290FD11BE00422A2
:100FD00022726569A06900211F460B46A847089D3B
:100FE000002810D03B4601203860B8603020069AB7
:100FF00010609068102101439160A079002808D00A
:101000000120E07107E00220E866204600F048F881
:1010100043E00120E866D8681860C00709D0656918
:10102000A069042200211F460B46A847089A002801
:1010300005D00799C8680860C00715D12DE03B4668
:10104000B86801218843B86039600804059B1968B5
:10105000014319601968814319600220D06607991D
:10106000C8680860C007D0D02168608A039A8A588F
:10107000049BFE3313401A46082B00D30822821823
:1010800093B2984208D2029D4919E5680E682E5421
:10109000401C8342F9D11046608209B0F0BD0000C7
:1010A000F0B501680B680F4A13400B6000234382C0
:1010B0001F24E4010D19AB60DD430D513D24A40153
:1010C0000E19B76810229743B7600D513F22920165
:1010D0008D50CB66022202720248401C0A6802430D
:1010E0000A60F0BDFFFFFF7F70B58124A500046892
:1010F000601940680826301AC0B2904201D8042610
:1011000000E001266651904200D31046002809D025
:1011100009229201A21804460D781560641E491C2C
:10112000002CF9D1187070BD6B49097808407047E0
:1011300010B5024668480078002808D0022000292F
:1011400014D00B4B1B78002B03D1664B02E003201D
:1011500010BD1B23940A09D1934207D21302012028
:10116000020208461946FFF75AF8002010BDC04693
:101170001401002080B5012801D05D4800E05B48E3
:10118000FFF7E6FD40B280BD002801D1442000E019
:1011900040200349CA68096901238B4013507047F6
:1011A000D40000204C4908707047C046F0B5C5B067
:1011B00004464948007800281DD00D460226002923
:1011C00000D185E045480078012801D11C2C7FD34F
:1011D000434802784348411C002A00D108468C420B
:1011E00001D3A04274D14048844206D03D48844295
:1011F00010D13F4E02E003266AE03C4E3046FFF736
:10120000A7FD002801D0012002E014363068401C00
:1012100094216850FEF7FCFF0290364802680721CF
:1012200001921140344B1F68062902D0062101604B
:1012300000BF390704D019680F26B143196000BFF9
:10124000196810260E4320218E431E60002103AE34
:1012500076186A5C3272491C012632029142F6D13C
:1012600026490391FF210491610A03D03106039AB4
:101270000A430392224D03A969602249296000BFF5
:1012800000BF00BF6A68120F0A2A13D10522560751
:101290000F22120724041C482018039003A868603A
:1012A000481C286000BF00BF00BF68681040861B54
:1012B000701E864118683021884318601F6000BF87
:1012C0000C480199016000BF0298C0B2FEF7A4FF6C
:1012D000304645B0F0BDC046170100201201002085
:1012E00016010020FF030000FE03000080FF030042
:1012F00080FE0300080F034028000340B6D700001B
:101300000400104004000080B6D8000080B50248F8
:10131000FFF720F980BDC046180100208CB0EE4BCD
:101320001868022738430121CE43304018601868FE
:1013300010220992104318600691C807E74A90608E
:101340001068302188431060FEF762FF0390E44C80
:1013500000222260E348417E61600892A26000782A
:10136000206132252846FEF74BFF206805210591B4
:1013700008430797B84320602846FEF741FF2068DE
:10138000062101433546314021600398FEF744FFB2
:10139000D24A1068800706D09068002803D51068EC
:1013A00003218843106010680C2188431060106886
:1013B000C02188431060C8490868079A1043049503
:1013C000284008600868099A10430860C648C74961
:1013D0000160FF2103910902C54A13688B43136022
:1013E000C4490160C449069E0E700068C34805994F
:1013F0000160C34F0421C34A38460591FEF7A0FFA0
:101400000721C14A3846FEF79BFFC04DC04A284617
:10141000089C2146FEF794FFBE4A28463146FEF757
:101420008FFFBD490868079A904308600868049ACE
:1014300010400860B9480460B9480480B948486061
:1014400062B6B868B84C20407103099D4018B86076
:10145000B869A843B8613D64F020FEF7D1FE786812
:10146000C00601D4402012E0B868204003210903DF
:101470000143B960B869A843B8617D64F020FEF704
:10148000BFFE7868C00601D5422000E00820059D17
:10149000B9682140012632030A43BA60B969099A42
:1014A0009143B961A1490872A1490870A14C0898FB
:1014B0002070A148FFF74CFC002802D02078284378
:1014C00020709E48FFF744FC002803D020780821B4
:1014D000014321709A490A461B32B04803689BB207
:1014E000934206D10021016020780121014321703F
:1014F00064E04B1C026892B2006887B22078000753
:1015000003D49F4207D1079D31E0207840078A48E5
:10151000099615D552E02078400702250995002844
:101520000DD48A4208D084484069049083484069B9
:10153000049DA842814803D27F48099600E07F4875
:10154000FE1A734273418A42069900D01946002957
:1015500001D0099D0BE000897A498842099D06D097
:101560007949884206D001208002183808907748CF
:10157000089901807648774901807748057073485B
:101580000688002E00D1A5E0744800270770FEF7FA
:101590003FFE614B9F601968059A114319601968F5
:1015A000079A114319605E490E806D495B4A1160CC
:1015B000196801220A431A60FEF72EFE00260096E3
:1015C000019668485949684A3346FEF7C7FF0398B1
:1015D000000466490A6882430320800510180860E9
:1015E00063490A686348824204D10968814201D193
:1015F000614981646148059901600B960A962478D7
:10160000584894212246FFF744F9012009908102AD
:1016100060070AAA00280846474D03D46889401C81
:101620000202E032079020070AAB002808910C461E
:1016300004D442484089441C2302E033494DE02150
:101640002846FFF776FA2846099F3946FFF71EF924
:10165000079881B2A2B22846FFF756FA1B200090E5
:10166000354980313A022846089BFFF703F90227E3
:1016700000974348831C284631463A46FFF74DFA07
:1016800000968022284631463346FEF7E1FF3D486A
:10169000069901703C4801703C4801703C4D2F4C4C
:1016A0003048FFF7FBF82878002810D0FEF7B0FD8F
:1016B000194A1168B943116019490E8017490E6023
:1016C0001168099B99431160FEF7A6FD26702078EA
:1016D0000028E5D0FFF724FB30001040280003402D
:1016E000080F034064F3FF0F0000014005000040B5
:1016F0001402014005FF008010010020000101409C
:1017000000030440A0170000B817000000040440C4
:10171000D0170000E817000010E000E034030020BC
:10172000300300207FBB0000FF8FFFFFD4000020AC
:10173000CC000020C800002080FF030080FE0300D2
:101740003142000059430000FFFF0000D20000209A
:10175000C400002046490000D000002011010020F4
:10176000150D000018010020E800002000E400E052
:1017700008ED00E0000000200D13000000E100E093
:10178000E8000000120100201601002014010020D2
:1017900017010020014908607047C046C0000020C2
:1017A0000100000001000000000000000000000037
:1017B0000000000000000000010000000A0000001E
:1017C0000000000000000000000000000000000019
:1017D00001000000040000000F00000000000000F5
:1017E00000000000000000000100000004000000F4
:1017F0000F000000000000000000000000000000DA
:10180000000000006FC75E10DE8EBD20B149E330DE
:10181000BC1D7B41D3DA25516293C6610D5498718A
:10182000783BF68217FCA892A6B54BA2C97215B2F6
:10183000C4268DC3ABE1D3D31AA830E3756F6EF322
:1018400064180000D0000020400000005C0100008F
:10185000A418000010010020680300007C010000B3
:10186000A1F4FFFF03003200000022400004044006
:101870000800000000030440070000008911000078
:10188000000000009517000075110000AD11000068
:101890003111000029110000A51100000000000016
:0418A0000000000044
:0200000490501A
:0C0000000002352111C500003A0B14AEBF
:0400000500000101F5
:00000001FF
