:100000000020002009040000190200001B0200006B
:1000100000000000000000000000000000000000E0
:1000200000000000000000000000000019020000B5
:1000300000000000000000001902000001030000A1
:100040001902000019020000190200001902000044
:100050001902000019020000190200001902000034
:100060001902000019020000190200001902000024
:100070001902000019020000190200001902000014
:100080001902000019020000190200001902000004
:10009000190200001902000000000000000000002A
:1000A0000000000000000000000000000000000050
:1000B0000000000000000000000000000000000040
:1000C0000000000000000000000000000000000030
:1000D0000000000000000000000000000000000020
:1000E0000800001000000000AD11201D00000000FD
:1000F0000000000000000000000000000000000000
:100100000448054B10B5834203D0044B002B00D0AC
:10011000984710BD180100201801002000000000C1
:1001200006480749091A8B10C90FC91810B549109C
:1001300003D0044B002B00D0984710BD18010020BD
:10014000180100200000000010B5074C2378002B98
:1001500009D1FFF7D5FF054B002B02D0044800E082
:1001600000BF0123237010BD180100200000000013
:1001700068180000054B10B5002B03D00449054852
:1001800000E000BFFFF7CCFF10BDC046000000003C
:100190001C01002068180000402292029A1A924620
:1001A0007047C046174B002B00D1134B9D46FFF7FD
:1001B000F3FF00218B460F461348144A121A01F030
:1001C000BFFA0E4B002B00D098470D4B002B00D0F0
:1001D00098470020002104000D000D48002802D09F
:1001E0000C4800E000BF01F0B3FA2000290000F045
:1001F000ABF901F091FAC0460000080000000000D1
:10020000310500000020002018010020A00400207B
:100210000000000000000000FEE7FEE70122014BA5
:100220001A70704734010020054B1969DA68012300
:100230008B40002801D1536470471364FCE7C0462B
:10024000D4000020014B18607047C046C000002059
:10025000014B18707047C04638010020010070B58E
:100260005631144A098803000120914221D180258A
:1002700019685A68AD028C18AC421AD2002A18D0FC
:100280009D6D01230F260C485B420A7801315340D3
:100290001A0933409B001B585A4013093240920000
:1002A00012585340A142F0D1D843401B431E9841FD
:1002B000C0B270BD46490000281800000138434212
:1002C0005841044BC00110B5C018FFF7C7FF40B23A
:1002D00010BDC04600FF0100024B1B7818400123EF
:1002E00018407047380100200221044B1A688A43E5
:1002F0001A601A6801398A431A60704710E000E0FA
:10030000094B10B51B68DB0305D5084A1388002B81
:1003100002D0013B138010BD054B1B68002B00D0A1
:100320009847FFF7E1FFF6E710E000E054030020F4
:10033000580300200322054B196B9143013A0A43ED
:1003400010211A631A6B0A431A63704700001040A9
:10035000F0B500284CD0012413688C40002B48D104
:100360004464536803279C4607231E004F43BE4046
:100370008568B54366463340BB401D433307DB0FFA
:100380008B40856085698F00A5432B430F25AC46C4
:10039000BD4066468361184B184CC3181B0A1B19D5
:1003A0001B021C684900AC432500147A3440BC4051
:1003B0002C431C6003248C400325C368A343D468EA
:1003C0002C408C4023438024C360136964041B06C3
:1003D000816823400A4C21400B438360536980228B
:1003E0005B06920481681340064A0A401343836007
:1003F000F0BD0464B5E7C0460000FCBF0002400049
:10040000FFFFFFFEFFFFFFFD1923294970B54A6D6D
:100410001A40284B102A1BD000221A60264B8B63EF
:1004200072B6C0222549264801F0B6F90123254AB3
:1004300011680B431360BFF34F8F234B2348834254
:1004400028D30020224B23498B422ED3FFF7AAFE4C
:100450001A68802AE2D1002018601F4B1B78032BFA
:10046000DCD0023B591E8B415B4213401B4A9B1858
:100470001B681A6882F308885B689847FEE71C6867
:10048000910065585C680132655099688A42F6D3DC
:100490000C33D4E70022F8E71C689500285101329C
:1004A0005C68A242F8D30833CEE70022F8E7C046E2
:1004B00000000340C00000206588EDAC0000000093
:1004C0000000002000001040741800008018000098
:1004D0008018000088180000C900002000FF0100FB
:1004E00010B5024800F05AFF10BDC0463C01002084
:1004F0000D4A03000800117810B50322002910D01E
:10050000013A00280DD0094A11880222994208D2E6
:100510008021C9008B4204D27E32D90101F03CF91E
:100520000022100010BDC04638010020CE0000207F
:100530007047000010B5034B1B78584300F02CFBAC
:1005400010BDC046C8000020F0B58BB0FFF7F2FE2A
:1005500080233022E14F1B063B63BB6AE04C934390
:10056000BB6200F022FB0021FE23DE4A3951FF333B
:10057000D35C0500DC48DBB23B50F1231B01F95092
:10058000F2235B00D35CD94ADBB2BB503220072692
:1005900000F002FB05233A593220B24313433B518A
:1005A00000F0FAFA06233A592800B24313433B51AC
:1005B00000F0FFFA0322BB6A134205D03B6B002B0D
:1005C00002DABB6A9343BB620C22BB6AC84C9343FA
:1005D000BB62BB6AB4329343BB62FFF7ABFE30220F
:1005E000C021C44B89001A70C34BC44AC4481A6066
:1005F0005A58C44D02405A50C34A20001A60402243
:100600001B68C24B0121DA60C14AFFF7A1FE02213B
:10061000C04AC148FFF79CFE0421C04ABE48FFF70C
:1006200097FE0521BC48BE4AFFF792FEBD4B0393DF
:100630000023039A1380BC4A13600492FFF754FE10
:10064000BA4B6B6062B638230226A26805209A4333
:10065000283B1343A360A369B343A3612664FFF758
:1006600069FF636840219B0713D53823A2680520E2
:100670009A43203B1343A360A369B343A361666419
:10068000FFF758FF0122636808215B08134200D07E
:100690003A313823A268A64E9A43303B13430222D4
:1006A000A360A369A3489343A361A34B1972069364
:1006B000A24B197000233370FFF7D0FD002803D040
:1006C00004233278134333709D48FFF7C7FD002899
:1006D00003D008233278134333709A4B9A4902931C
:1006E0001B689BB28B4200D097E00023029A1360F4
:1006F00032780133134333700023944D944A280019
:1007000006990193009300F0C9FDC220914B80002F
:100710001958914A1140C02212040A431A5001226A
:100720008E490868104205D00968114202D08C4AEF
:100730008C4991668024E4001C6000233678802177
:10074000F6B2320028000893099300F078FB08AA5B
:10075000730705D4774B5C890134E201E032A4B21F
:10076000360700D443E1802608ABF600E0212800DC
:1007700000F069FB0121280000F05EFB210032003F
:10078000280000F085FB3724802380218022280068
:10079000DB008902009400F06FFD0222724B002101
:1007A00028000233009200F064FB002180220B003D
:1007B0002800009100F076FB38226C4B1A806C4BBD
:1007C0006C4A1A806C4B1A806C4B1C805F4800F09E
:1007D000CBFB6B4B6B4E1B78002B0DD000F0E5F97B
:1007E00000240500039B1C80049B1C60FFF77CFD1C
:1007F000280000F0DEF934703378002BE6D0802238
:10080000504B1A6019237B65BFF34F8F5E4B5F4AD5
:10081000DA60BFF34F8FC046FDE7029B1B689BB2B7
:100820000593029B1B689BB29C4633781B0718D428
:10083000574B9C4512D033785B070FD43D49554840
:10084000059A01240B00824211D03D4843691A00E9
:100850004B6907930B0007998A4208D30224384B4F
:1008600005E033785B0700D546E70124314B4A4960
:100870004A486144002909D0494A0599944661448F
:100880000A0051425141CAB200291AD00023038004
:10089000444B45491C70454B198003889AB2059218
:1008A000002B00D088E0029A80331360673B7B65A1
:1008B000BFF34F8F344B354ADA60BFF34F8FC046DA
:1008C000FDE71B893A498B4201D11300DFE7394923
:1008D0008B42DDD0FA239B00D9E7C04600000340DD
:1008E000080F000000F0FF0F0C0F0000180F0000B1
:1008F00000020440C8000020000001404000004009
:10090000FF0000FF10E000E040FF0080FC0001401D
:10091000C8170000E0170000000304401018000092
:10092000F817000054030020580300207FBB00008C
:10093000C600002080FF0100D4000020C700002076
:1009400000FF0100C00000204C4200003C010020DC
:10095000E800002000E100E0FFFF00FF0000104081
:1009600000000020E1040000E80000003601002043
:10097000CC000020FF030000D0000020CE000020AB
:10098000380100203401002000ED00E00400FA05E9
:100990003242000031420000CEBDFFFFCA000020FD
:1009A000CFBDFFFFC900002046490000C400002061
:1009B00059430000FFFF00000024104B1C7000F0A2
:1009C000F4F8039B059A1A80049A0D4B13600422D5
:1009D000AC602B6813432B6002232A6813432B60FF
:1009E00001232A6813432B6000F0E3F884E6054BEB
:1009F0005E890136F301E033B6B2B7E63401002078
:100A00001D02000000FF0100014B18685968704783
:100A100078F1FF0F002310B5934200D110BDCC5CDC
:100A2000C4540133F8E70000F0B5494B06001B78C9
:100A30000F000324A7B0002B00D17FE0013C002968
:100A400000D17BE0434B1B88834200D976E0424BC8
:100A50001B88834203D2414B1B8883426ED1404B9B
:100A60009E4200D06DE03F4C2000FFF7F7FB0023D3
:100A7000984200D1636901337B6100F096F83A4DEA
:100A80003A4A0390AB580193AB6A0199029307234A
:100A90000B40062B02D00623AB50C0460F22029B10
:100AA000134203D0AB6A9343AB62C0463023AA6AB9
:100AB00039009A43203B1343AB62802206A8FFF71C
:100AC000A9FF2B4B04937F2305938233FF339E4270
:100AD00004D38023049A5B0413430493254B04AA94
:100AE0009A60254A5A60C046C046C0469A680124AA
:100AF000120F0A2A13D1214A36043243049204AA5F
:100B00009A601F4A5A60C046C046C0469C68C023CF
:100B1000240FDB052407E418631E9C41E4B2302255
:100B2000AB6A9343AB62029BAB62C0460F4B019A28
:100B3000EA50C0466B46187B00F03BF860B227B025
:100B4000F0BD104B9E4200D097E70F4C8CE7C0469B
:100B50003801002036010020CC000020D000002009
:100B6000FF03000000FF010000000340080F000029
:100B7000B6D700000000104004000080B6D8000086
:100B800005000080FE03000080FF010010B500F0AA
:100B9000D7FD10BD000000000230800803D00138EE
:100BA000FDD1C046C046C0467047EFF3108072B614
:100BB000704780F310887047F8B504000D00FFF708
:100BC000F4FF0C236B43E3181A002600F332FF32C4
:100BD0001288070091B25436002A2FD0002D0AD176
:100BE000F62322005B00E358D232197811705A784C
:100BF0002300D3331A700C226A43A2181300ED337A
:100C0000FF331B68F5329978DB78FF321B020B4308
:100C100004339BB213800122AA40B3791343B3710A
:100C2000231DDB7F002B05D0236D1B68002B01D01B
:100C3000002098473800FFF7BCFFF8BD1A00ED33DD
:100C4000F132FF32FF331288186800F079FD002D71
:100C500004D12300D334D2331D7025700122AA4061
:100C6000B3799343B371E5E7F8B50400C90721D51B
:100C7000FA25FFF79AFF6D00635B0600002B12D088
:100C8000F623F9275B007F00615BE058E25B635B62
:100C90004118D21A00F080FD625BE35B9B1A9BB2A5
:100CA000E353002363533000FFF783FF002120004C
:100CB000FFF782FFFFF779FF230054339B7905008C
:100CC000002B0CD0231DDB7F002B04D0236D0020D4
:100CD0001B68002B08D12800FFF76BFFF8BD236DC0
:100CE0001B68002BF7D001209847F4E7F7B50125E2
:100CF0001E004F4F831CDD7704007B78032908D149
:100D00000021C162016390223800520000F018FDFA
:100D10001CE0012900D06BE00F201A090340022ECD
:100D200027D80025E5622563012E13D0AA420DD1F4
:100D3000022B0DD1A31D3878DA8F904206D20D0018
:100D4000D633083218189B18E06223632800FEBDD2
:100D5000002BFBD100230025FB563A78AB42F5DB94
:100D6000230054339B18E3622300DC3323630135F3
:100D7000ECE70F2A13D0A51D002B17D0022B0ED1A4
:100D800020003B78EA8F023EDC30B6B2C018D21A9F
:100D9000B24200DD3200274992B200F0FDFC01258D
:100DA0000634E37FD9B2002BD0D1ACE7002AF6D1CC
:100DB000200000F0F7FA7B78002B13D13B78062B4C
:100DC00010D123005433BA789B791340BB7009D0FB
:100DD000236D1B68002B05D0221DD27F002A01D075
:100DE000012098470123023EB6B2EB77E684D6E7AE
:100DF0000025A942D4D1C06A051ED1D0236B0D00B5
:100E00009842CDD21B1A9BB2002BC9D06A46D51D81
:100E10001A1C082B00D908222B000100D2B2200096
:100E200000F052FCE36A2A789B18E362B7E7C046F9
:100E30007C0300207E03002088300160704754301E
:100E4000017042707047F8B508260400170064303E
:100E500032001D0000F0A0FC2000320039006C3090
:100E600000F09AFC200032002900743000F094FC5D
:100E7000F8BD70B505000020140004AA1278814264
:100E800001D1280054301900001900F085FC70BD14
:100E900003007C3319709A70090A120A7F30597066
:100EA00002707047F7B50F001C0016000090FFF7A6
:100EB0007CFE0C237B43009A0190D3181D001A007E
:100EC000F335F132FF35FF3228881288298880B245
:100ED000511A8C462100083189B28C4522DA2988C2
:100EE0000024521A032A14DD8121ED33FF331A68DE
:100EF00011541968421C92B28C541968821C92B227
:100F00008C541B68033080B21C542B8804339BB272
:100F10002B800198FFF74DFE39000098FFF74CFE3B
:100F20002000FEBDED33FF331A68E1B216541E688F
:100F3000421C92B2B1541E68821C92B2B15419681C
:100F4000C21C92B2260A8E54043082B218680899E4
:100F50008018220000F020FC2B8804341B199BB25F
:100F600001242B80D5E70000F0B5831D89B00393E1
:100F7000DB7F0400002B00D1A8E0B74F7B781B0972
:100F800000D097E0C38C02AADBB203930E239B1818
:100F90000522002000211A70226D06900791166A22
:100FA0003D78002E5FD13B2D56D8AB4A2B2D08D86B
:100FB000A81FC3B2062B44D90E2302AA9B180522F0
:100FC0008EE0290001232C39C9B28B40A3490B4282
:100FD00044D1252019000140034250D1332DEBD1DB
:100FE0009378492B00D031E12600DC3620223000F6
:100FF00000F0A6FBFFF708FD0822069007913000DD
:1010000006A9FFF707FDF0210F222000944B0906E7
:10101000CB58E4301B0913400370924BCB5821008E
:101020001B0913402200E532137091238E4A9B0066
:10103000D058E6310870D2582300120AE7331A70EC
:1010400090E00628B8D800F05DFB4300B7FF4D00E4
:10105000B7FF9200AE00BB00702DADD10E2302AAE7
:101060009B180A223CE001930F2302A95B1800930E
:10107000290020007D4A039BB047002893D00E260C
:1010800002ABF6182B00403B0F2B0AD8E36C9C46B2
:10109000002B06D0A9B220006546744B039AA847DE
:1010A00030703278002A05D0002120000B0000911A
:1010B000FFF7F8FE902200213800520000F040FBBC
:1010C0000021A31D2000D97700F06CF909B0F0BD14
:1010D0002000B978FFF7C8FD0E2302AA9B18002252
:1010E0001A70CCE7039B012BC9D99378522BC6D138
:1010F000D678002E22D0012EC1D1231DDB7F002BFC
:1011000005D0236D1B68002B01D0300098470021CB
:10111000200000F047F90520FFF70CFA72B6236DA6
:101120009B68002B01D000209847BFF34F8F504B96
:10113000504ADA60BFF34F8FC046FDE7F8235B00EB
:10114000E25A043B3100E05800F0FAFAFA235B005F
:10115000E652023B20000721E652FFF785FD200002
:1011600000F02CF90E2302AA9B180222B8E7216D89
:10117000CB69002B00D11FE78969002900D11BE74B
:101180009278502A04D14F3A002110009847E9E79D
:1011900001208847002800D10EE70021236D01229D
:1011A0000800DB69F2E7236DDB68002B00D166E7FE
:1011B000B87898470E2302AA02309B1818705EE791
:1011C000039B032B00D85AE79378462B00D056E7B1
:1011D0000F2602ABF61802233370D378012B10D1FF
:1011E000236D1B69002B2CD021009088DC3100225C
:1011F00098473070002824D10E2302AA9B1802229F
:101200001A700E26144A02A9D3787618002B0DD135
:10121000236D5B69002B09D021009088DC31984751
:101220000F2302AA9B181870032333700F2302AAFE
:101230009B181B785BB2002B00D120E7072333708B
:101240001DE70E2302AA9B180722D9E70E2302AA44
:101250009B18092244E7C0467C0300201AA0000026
:10126000EC0F0000E80F000000F0FF0F7E030020ED
:1012700000ED00E00400FA0510B50164811DCA8785
:1012800002000832D387030002AC248854300A33AA
:10129000DC870471240A447110BD0000F0B589B0E8
:1012A0000FAB04000E0015001B7800286CD000293D
:1012B0006AD0002A68D0022B66D8344B202218004E
:1012C00000210693FFF762FC2000ED30242200216C
:1012D000FF30FFF75BFC90222D4B002118005200DD
:1012E0000793FFF753FC25650025A31CE564DD7714
:1012F000A31DDD77802327005B006384631DDD77FA
:101300000433E584DD772B335437E5861D709E3337
:1013100080222900E362380000F012FA91231D4A6E
:101320009B00D258232193B21B0AFB702300BA7092
:1013300048331B7820223B71230049331B7820005F
:101340007B7123008E33997022391A705D70D970C9
:101350001D715D71F62306995B00E1500433E25282
:10136000D03B0393079B327A02930B4B3168D2B286
:1013700000930495FE23019400F048F980217268DF
:10138000490493680B43936009B0F0BD5C030020EF
:101390007C03002000F0FF0FED0C000010B500F002
:1013A00033F810BD03688171002905D1C279002A84
:1013B00002D00122C171DA6670470000036830B5BF
:1013C0001A680F49520052081A6002220272002263
:1013D00042825A50F820012110254942094C00014F
:1013E00019501859A8431851F420000119508030A1
:1013F0001950DA668022196812060A431A6030BD55
:10140000880F0000480F0000F7B5F4220468794BFC
:101410001201E6580500A650E258164201D0E358E2
:101420009E430223FF331E4200D0A6E00120F306B4
:101430004AD52B7A042B27D0C22292006B8AA1585E
:101440009BB2C905C90D0A1C082900D90822180039
:1014500092B29918019289B287B2B94200D983E059
:1014600000208B4201D86A46908805221B189BB247
:101470006B826B8A2A729BB201216F69A869B84797
:10148000FC2301221B01E25002232B7200236B82FA
:10149000812380229B00E15852020A43E250E25825
:1014A00055490A40E250012254496358934363501E
:1014B000F82310211B01E250514AA3588B43A3503B
:1014C000F42330221B01E250760665D52B7A022BDD
:1014D0005AD1636EDB0653D5042200236E691900CE
:1014E000A8692A72B04700284ED0F82201231201C1
:1014F000A350424AA350F42330221B01E250102390
:101500003F4AA1580B43A350AA790123002A41D195
:10151000E366F82201263B4B1201E358A350334205
:101520003DD10120FC22384B1201E358A350DB07C8
:101530005CD5C2222C6892006B8AA2589BB2D2055D
:10154000D20D111C082A00D9082118008AB2991856
:1015500089B286B2B14240D800208B4200D8101C1C
:101560001B189BB26B82F7BDD027BF00E759BC4662
:101570006246EF683A5401306EE700263000A3E778
:1015800005232B720028B6D10223E3662800FFF75B
:1015900015FFE8E7EB71BCE70028BAD1F6E76B6905
:1015A00004221F000023A8691900B8470028B8D1F9
:1015B000124AA358B343A350F8231B01E6508123DA
:1015C00080229B00E15852020A43E250E2580A4945
:1015D0000A40E2500223E366A4E7D026B600A659EB
:1015E000B4466746EE6837540130B2E70028BAD1F6
:1015F000CCE7C0464C0F0000FFFFFEFF880F000045
:10160000480F00008C0F0000CC0F0000F0B54371B4
:1016100002230372002308AC2488079D0482059CE2
:1016200002714461069C43828461099C0160C5602B
:10163000C46120480B6080250866C1248120A40075
:1016400080006D02CB6601270D500D51F4251A4E16
:101650007F422D018B514F51184D52004B51083D87
:101660004F51174D4B51FC231B01CF50FE231B0440
:101670001343C42292000F688B500823113AFF33A2
:10168000FF3A8B500132FF328B5080231B063B43C5
:101690000B6004230B500B510B590A4A13400B519A
:1016A0000B5813400B504223FF338B51413BFF3B00
:1016B0004B51F0BD88280040480F0000880F000003
:1016C000C80F0000FFFFFEFF70B504688220800095
:1016D00025580820401B8125C0B2AD00904208D992
:1016E0000120605190258818AD00814205D11A7003
:1016F00070BD042262510200F4E70E780131665198
:10170000F3E7000003B47146490840004900095E50
:1017100049008E4403BC7047074B10B50400002BF2
:1017200002D0002100E000BF044B1B68002B00D05A
:101730009847200000F03AF8000000009C040020C8
:1017400003008218934200D1704719700133F9E702
:1017500070B500260C4C0D4D641BA410A64209D197
:10176000002600F025F80A4C0A4D641BA410A6427E
:1017700005D170BDB300EB5898470136EEE7B300D2
:10178000EB5898470136F2E71001002010010020C5
:101790001401002010010020002310B59A4200D14E
:1017A00010BDCC5CC4540133F8E70000FEE7C0462E
:1017B000F8B5C046F8BC08BC9E467047F8B5C046B0
:1017C000F8BC08BC9E467047010000000100000004
:1017D0000000000000000000000000000000000009
:1017E000010000000C0000000000000000000000EC
:1017F00000000000000000000100000004000000E4
:101800000F000000000000000000000000000000C9
:1018100001000000040000000F00000000000000B4
:101820000000000000000000000000006FC75E1014
:10183000DE8EBD20B149E330BC1D7B41D3DA25519A
:101840006293C6610D549871783BF68217FCA8929A
:10185000A6B54BA2C97215B2C4268DC3ABE1D3D3D2
:0C1860001AA830E3756F6EF30000000062
:08186C002CE9FF7F01000000E0
:0C18740088180000C800002014000000CC
:0818800018010020E200000045
:1018880018033200FF03FF030004000000000740B4
:1018980000030440080000000003044002000000A8
:1018A800290200000000000045020000BD020000FF
:1018B800290A0000F1040000D902000051020000CA
:1018C8000000000000000000750100004901000050
:0200000490501A
:0C00000000021D2011AD00003A0B14AEF0
:0400000300000409EC
:00000001FF
