:100000000080002009040000190200001B0200000B
:1000100000000000000000000000000000000000E0
:1000200000000000000000000000000019020000B5
:1000300000000000000000001902000001030000A1
:100040001902000019020000190200001902000044
:100050001902000019020000190200001902000034
:100060001902000019020000190200001902000024
:100070001902000019020000190200001902000014
:100080001902000019020000190200001902000004
:1000900019020000190200001902000019020000F4
:1000A00019020000190200001902000019020000E4
:1000B00019020000190200001902000019020000D4
:1000C0000000000000000000000000000000000030
:1000D0000000000000000000000000000000000020
:1000E0000800001000000000C511213500000000CC
:1000F0000000000000000000000000000000000000
:100100000448054B10B5834203D0044B002B00D0AC
:10011000984710BD180100201801002000000000C1
:1001200006480749091A8B10C90FC91810B549109C
:1001300003D0044B002B00D0984710BD18010020BD
:10014000180100200000000010B5074C2378002B98
:1001500009D1FFF7D5FF054B002B02D0044800E082
:1001600000BF0123237010BD180100200000000013
:1001700080180000054B10B5002B03D0044905483A
:1001800000E000BFFFF7CCFF10BDC046000000003C
:100190001C01002080180000402292029A1A924608
:1001A0007047C046174B002B00D1134B9D46FFF7FD
:1001B000F3FF00218B460F461348144A121A01F030
:1001C000CBFA0E4B002B00D098470D4B002B00D0E4
:1001D00098470020002104000D000D48002802D09F
:1001E0000C4800E000BF01F0BFFA2000290000F039
:1001F000A7F901F09DFAC0460000080000000000C9
:10020000290500000080002018010020A004002023
:100210000000000000000000FEE7FEE70122014BA5
:100220001A70704734010020054B1969DA68012300
:100230008B40002801D1536470471364FCE7C0462B
:10024000D4000020014B18607047C046C000002059
:10025000014B18707047C04638010020010070B58E
:100260005631144A098803000120914221D180258A
:1002700019685A68ED028C18AC421AD2002A18D0BC
:100280009D6D01230F260C485B420A7801315340D3
:100290001A0933409B001B585A4013093240920000
:1002A00012585340A142F0D1D843401B431E9841FD
:1002B000C0B270BD464900004018000001384342FA
:1002C0005841044B000210B5C018FFF7C7FF40B2F9
:1002D00010BDC04680FE0300024B1B78184001236E
:1002E00018407047380100200221044B1A688A43E5
:1002F0001A601A6801398A431A60704710E000E0FA
:10030000094B10B51B68DB0305D5084A1388002B81
:1003100002D0013B138010BD054B1B68002B00D0A1
:100320009847FFF7E1FFF6E710E000E054030020F4
:10033000580300200322054B196B9143013A0A43ED
:1003400010211A631A6B0A431A63704700001040A9
:10035000F0B500284CD0012413688C40002B48D104
:100360004464536803279C4607231E004F43BE4046
:100370008568B54366463340BB401D433307DB0FFA
:100380008B40856085698F00A5432B430F25AC46C4
:10039000BD4066468361184B184CC3181B0A1B19D5
:1003A0001B021C684900AC432500147A3440BC4051
:1003B0002C431C6003248C400325C368A343D468EA
:1003C0002C408C4023438024C360136964041B06C3
:1003D000816823400A4C21400B438360536980228B
:1003E0005B06920481681340064A0A401343836007
:1003F000F0BD0464B5E7C0460000FCBF0002400049
:10040000FFFFFFFEFFFFFFFD1923274970B54A6D6F
:100410001A40264B102A19D000221A60244B8B63F5
:1004200072B6244CC0222000234901F0C1F9234BAD
:100430009C60BFF34F8F224B2248834227D300207A
:10044000214B22498B422DD3FFF7ACFE1A68802A3C
:10045000E4D100221A601E4B1B78032BDED0023B36
:100460005A1E93411B4A1B029B181B681A6882F391
:1004700008885B689847FEE71C68910065585C68CF
:100480000132655099688A42F6D30C33D5E70022D1
:10049000F8E71C689500285101325C68A242F8D345
:1004A0000833CFE70022F8E700000340C000002037
:1004B0006588EDAC000000200000000000ED00E0C9
:1004C0008C1800009818000098180000A018000070
:1004D000C900002080FE030010B5024800F06AFF4A
:1004E00010BDC0463C0100200D4A030008001178F1
:1004F00010B50322002910D0013A00280DD0094A76
:1005000011880222994208D28021C9008B4204D26C
:10051000FE32190201F04CF90022100010BDC04655
:1005200038010020CE0000207047000010B5034BBA
:100530001B78584300F03CFB10BDC046C8000020AB
:10054000F0B58BB0FFF7F6FE80233022E14F1B069B
:100550003B63BB6AE04C9343BB6200F032FB00217B
:10056000DE4ADF4B3951D35C0500DE48DBB23B503D
:10057000F1231B01F950D9239B00D35CDA4ADBB28B
:10058000BB503220072600F013FB05233A593220D6
:10059000B24313433B5100F00BFB06233A592800AA
:1005A000B24313433B5100F010FB0322BB6A1342DA
:1005B00005D03B6B002B02DABB6A9343BB620C2273
:1005C000BB6A05269343BB62BB6AB4329343BB62EA
:1005D000FFF7B0FE30228521C44B89001A70C44B4E
:1005E000C44AC5481A605A58C44C02405A50C44ABA
:1005F00020001A601B68C34B04215E60C24AFFF7EB
:10060000A7FE20000721C14AFFF7A2FE0021C04A31
:10061000C048FFF79DFE0121BE48BF4AFFF798FE84
:10062000BE4BBF4D03930023039A1380BD4A136052
:100630000492FFF759FEBC4B6B6062B6BB4BA268DD
:1006400030001A4080239B0113431022A360A3694A
:100650009343A3612264FFF769FF62684023D206D7
:1006600015D5A268B14B30001A40C0239B0113433B
:100670001022A360A3699343A3616264FFF756FF4E
:1006800001216268082312090A4200D03A33A168A6
:10069000A64AA74E1140802252010A431021A260AF
:1006A000A269A4488A43A261A34A13720692A34A8C
:1006B000137000233370FFF7D1FD002803D004230B
:1006C0003278134333709E48FFF7C8FD002803D0EB
:1006D00008233278134333709A4B9B4A02931B686A
:1006E0009BB2934200D094E00023029A13603278C8
:1006F0000133134333700023944A954806990193BC
:10070000009300F0D7FDC020924B80001958924A08
:100710001140C02212040A431A50904A904992682C
:100720008A4205D18D4989688A4201D18D499164F7
:1007300004251D6000233678854CF6B232009421E2
:1007400020000893099300F086FB2E4200D14CE173
:10075000802508AAED00360700D44DE1802608ABBD
:10076000F600E021200000F07AFB0121200000F0DB
:100770006FFB29003200200000F096FB1B25802330
:10078000802280212000DB005200C902009500F089
:100790007FFD0222744B002120000233009200F002
:1007A00074FB002180220B002000009100F086FBEA
:1007B0001C226E4B1A806E4B6E4A1A806E4B1A804A
:1007C0006E4B1D80624800F0DBFB6D4B6D4E1B785D
:1007D000002B0DD000F0F5F900240500039B1C80D0
:1007E000049B1C60FFF780FD280000F0EEF93470D8
:1007F0003378002BE6D08022524B1A6019237B6598
:10080000BFF34F8F604B554AD360BFF34F8FC04645
:10081000FDE7029B1B689BB20593029B1B689BB282
:100820009C4633781B0718D4584B9C4512D033781C
:100830005B070FD43F48564C059901230200A142A3
:1008400011D03F4C6369190043690793079801234E
:10085000814208D302233A4A05E033785B0700D58A
:1008600049E70123334A4B484B4C6044002809D0E8
:100870004A4905988C466044010048424841C1B24B
:1008800000281AD000222280454A1370454B464A60
:100890001A8023889AB20592002B00D08AE0029A2F
:1008A00080331360673B7B65BFF34F8F364B2B4A1A
:1008B000D360BFF34F8FC046FDE712893B488242A9
:1008C00001D10A00DFE73A488242DDD0FA229200E5
:1008D000D9E7C04600000340080F000000F0FF0FFA
:1008E0007D0300000C0F0000180F0000C80000205E
:1008F0000000014005000040FF00FFFF000304402E
:1009000005FF0080FC000140E0170000F817000020
:1009100010180000000404402818000054030020B0
:1009200010E000E0580300207FBB0000FF8FFFFFB6
:10093000C600002080FF0300D4000020C700002074
:1009400080FE0300C00000204C420000E8000020B0
:100950003C01002000E100E0FFFF00FF00ED00E0AF
:1009600000000020D9040000E8000000360100204B
:10097000CC000020FF030000D0000020CE000020AB
:1009800038010020340100200400FA053242000042
:1009900031420000CEBDFFFFCA000020CFBDFFFFE7
:1009A000C9000020C400002046490000594300004F
:1009B000FFFF00000024144B1C7000F002F9039BA1
:1009C000059A1A80049A114B13600422AC602B68BC
:1009D00013432B6002232A6813432B6001232A68E8
:1009E00013432B6000F0F1F885E6094B5D89013572
:1009F0002A02E032ADB2AEE6064B5E890136330222
:100A0000E033B6B2ADE6C046340100201D0200005E
:100A100080FF030080FE0300014B1868596870478F
:100A200078F2FF0F002310B5934200D110BDCC5CCB
:100A3000C4540133F8E70000F0B5334D334FC7B06D
:100A400006000C0000F0BDF8EB5903900193AB6A6F
:100A5000019A029307231340062B02D00623EB5181
:100A6000C0460F22029B134203D0AB6A9343AB6292
:100A7000C0463023AA6A21009A43203B13438022B8
:100A8000AB62520006A8FFF7CDFF214B0493FF2372
:100A900005930233FF339E4204D38023049A5B0400
:100AA000134304931B4B04AA9A601B4A5A60C04626
:100AB000C046C0469A680124120F0A2A13D1174A69
:100AC00036043243049204AA9A60154A5A60C0461A
:100AD000C046C0469C68C023240FDB052407E418E9
:100AE000631E9C41E4B23022AB6A9343AB62029B2B
:100AF000AB62C046019BEB51C0466B46187B00F0D1
:100B000064F8200047B0F0BD00000340080F00006B
:100B1000B6D700000000104004000080B6D80000E6
:100B200005000080184B70B51B7804000D000320F1
:100B3000002B21D0013800291ED0144B1B88A34262
:100B40001AD8134B1B88A34203D2124B1B88A34213
:100B500012D1114B9C4211D1104E3000FFF77EFB99
:100B60000023984200D173692A0001339432136044
:100B700029002000FFF760FF40B270BD084B9C4287
:100B8000F6D1084EE9E7C0463801002036010020C2
:100B9000CC000020D0000020FF03000080FE0300F6
:100BA000FE03000080FF030010B500F0D5FD10BD6E
:100BB0000230800803D001300238FCD1C046C04664
:100BC0007047EFF3108072B6704780F3108870475B
:100BD000F8B504000D00FFF7F4FF0C236B43E31896
:100BE0001A002600F332FF321288070091B2543601
:100BF000002A2FD0002D0AD1F62322005B00E358F3
:100C0000D232197811705A782300D3331A700C221B
:100C10006A43A2181300ED33FF331B68F53299784D
:100C2000DB78FF321B020B4304339BB2138001229B
:100C3000AA40B3791343B371231DDB7F002B05D08A
:100C4000236D1B68002B01D0002098473800FFF768
:100C5000BCFFF8BD1A00ED33F132FF32FF331288CA
:100C6000186800F079FD002D04D12300D334D2336D
:100C70001D7025700122AA40B3799343B371E5E753
:100C8000F8B50400C90721D5FA25FFF79AFF6D00D2
:100C9000635B0600002B12D0F623F9275B007F0070
:100CA000615BE058E25B635B4118D21A00F080FDA3
:100CB000625BE35B9B1A9BB2E353002363533000F8
:100CC000FFF783FF00212000FFF782FFFFF779FF86
:100CD000230054339B790500002B0CD0231DDB7FB0
:100CE000002B04D0236D00201B68002B08D12800A6
:100CF000FFF76BFFF8BD236D1B68002BF7D00120B9
:100D00009847F4E7F7B501251E004F4F831CDD77A8
:100D100004007B78032908D10021C162016390227D
:100D20003800520000F018FD1CE0012900D06BE0F3
:100D30000F201A090340022E27D80025E5622563FB
:100D4000012E13D0AA420DD1022B0DD1A31D38784C
:100D5000DA8F904206D20D00D633083218189B184D
:100D6000E06223632800FEBD002BFBD10023002599
:100D7000FB563A78AB42F5DB230054339B18E36211
:100D80002300DC3323630135ECE70F2A13D0A51DC4
:100D9000002B17D0022B0ED120003B78EA8F023EA9
:100DA000DC30B6B2C018D21AB24200DD3200274998
:100DB00092B200F0FDFC01250634E37FD9B2002B8E
:100DC000D0D1ACE7002AF6D1200000F0F7FA7B780A
:100DD000002B13D13B78062B10D123005433BA7863
:100DE0009B791340BB7009D0236D1B68002B05D085
:100DF000221DD27F002A01D0012098470123023E04
:100E0000B6B2EB77E684D6E70025A942D4D1C06A12
:100E1000051ED1D0236B0D009842CDD21B1A9BB278
:100E2000002BC9D06A46D51D1A1C082B00D90822F0
:100E30002B000100D2B2200000F052FCE36A2A78B5
:100E40009B18E362B7E7C0467C0300207E030020C6
:100E50008830016070475430017042707047F8B5B7
:100E6000082604001700643032001D0000F0A0FCCA
:100E70002000320039006C3000F09AFC2000320073
:100E80002900743000F094FCF8BD70B50500002016
:100E9000140004AA1278814201D1280054301900AC
:100EA000001900F085FC70BD03007C3319709A7046
:100EB000090A120A7F30597002707047F7B50F00A7
:100EC0001C0016000090FFF77CFE0C237B43009A69
:100ED0000190D3181D001A00F335F132FF35FF32AF
:100EE00028881288298880B2511A8C46210008313E
:100EF00089B28C4522DA29880024521A032A14DD8B
:100F00008121ED33FF331A6811541968421C92B2E3
:100F10008C541968821C92B28C541B68033080B2C6
:100F20001C542B8804339BB22B800198FFF74DFE95
:100F300039000098FFF74CFE2000FEBDED33FF3373
:100F40001A68E1B216541E68421C92B2B1541E686F
:100F5000821C92B2B1541968C21C92B2260A8E54F5
:100F6000043082B2186808998018220000F020FC32
:100F70002B8804341B199BB201242B80D5E7000079
:100F8000F0B5831D89B00393DB7F0400002B00D1F3
:100F9000A8E0B74F7B781B0900D097E0C38C02AA6A
:100FA000DBB203930E239B180522002000211A7048
:100FB000226D06900791166A3D78002E5FD13B2D79
:100FC00056D8AB4A2B2D08D8A81FC3B2062B44D93C
:100FD0000E2302AA9B1805228EE0290001232C393A
:100FE000C9B28B40A3490B4244D1252019000140CE
:100FF000034250D1332DEBD19378492B00D031E10E
:101000002600DC362022300000F0A6FBFFF704FDAE
:10101000082206900791300006A9FFF703FDF02192
:101020000F222000944B0906CB58E4301B091340D3
:101030000370924BCB5821001B0913402200E5326C
:10104000137091238E4A9B00D058E6310870D25815
:101050002300120AE7331A7090E00628B8D800F08F
:101060005DFB4300B7FF4D00B7FF9200AE00BB0031
:10107000702DADD10E2302AA9B180A223CE00193E9
:101080000F2302A95B180093290020007D4A039BCF
:10109000B047002893D00E2602ABF6182B00403B39
:1010A0000F2B0AD8E36C9C46002B06D0A9B2200077
:1010B0006546744B039AA84730703278002A05D0F1
:1010C000002120000B000091FFF7F8FE9022002184
:1010D0003800520000F040FB0021A31D2000D9770A
:1010E00000F06CF909B0F0BD2000B978FFF7C8FD39
:1010F0000E2302AA9B1800221A70CCE7039B012B37
:10110000C9D99378522BC6D1D678002E22D0012E81
:10111000C1D1231DDB7F002B05D0236D1B68002B65
:1011200001D0300098470021200000F047F9052049
:10113000FFF7FCF972B6236D9B68002B01D00020ED
:101140009847BFF34F8F504B504ADA60BFF34F8F31
:10115000C046FDE7F8235B00E25A043B3100E0584B
:1011600000F0FAFAFA235B00E652023B2000072166
:10117000E652FFF785FD200000F02CF90E2302AAAD
:101180009B180222B8E7216DCB69002B00D11FE725
:101190008969002900D11BE79278502A04D14F3A7F
:1011A000002110009847E9E701208847002800D176
:1011B0000EE70021236D01220800DB69F2E7236DB1
:1011C000DB68002B00D166E7B87898470E2302AAA7
:1011D00002309B1818705EE7039B032B00D85AE778
:1011E0009378462B00D056E70F2602ABF618022361
:1011F0003370D378012B10D1236D1B69002B2CD0B9
:1012000021009088DC31002298473070002824D1DA
:101210000E2302AA9B1802221A700E26144A02A953
:10122000D3787618002B0DD1236D5B69002B09D084
:1012300021009088DC3198470F2302AA9B18187070
:10124000032333700F2302AA9B181B785BB2002B79
:1012500000D120E7072333701DE70E2302AA9B1855
:101260000722D9E70E2302AA9B18092244E7C046A9
:101270007C0300201AA00000EC0F0000E80F000023
:1012800000F0FF0F7E03002000ED00E00400FA05EF
:1012900010B50164811DCA8702000832D38703009C
:1012A00002AC248854300A33DC870471240A447168
:1012B00010BD0000F0B589B00FAB04000E001500A2
:1012C0001B7800286CD000296AD0002A68D0022B35
:1012D00066D8344B2022180000210693FFF764FCE7
:1012E0002000ED3024220021FF30FFF75DFC90222A
:1012F0002D4B0021180052000793FFF755FC256580
:101300000025A31CE564DD77A31DDD77802327007E
:101310005B006384631DDD770433E584DD772B3365
:101320005437E5861D709E3380222900E362380021
:1013300000F012FA91231D4A9B00D258232193B248
:101340001B0AFB702300BA7048331B7820223B71C4
:10135000230049331B7820007B7123008E33997062
:1013600022391A705D70D9701D715D71F62306996E
:101370005B00E1500433E252D03B0393079B327A87
:1013800002930B4B3168D2B200930495FE23019473
:1013900000F048F980217268490493680B43936018
:1013A00009B0F0BD5C0300207C03002000F0FF0FBB
:1013B000050D000010B500F033F810BD0368817111
:1013C000002905D1C279002A02D00122C171DA6652
:1013D00070470000036830B51A680F495200520880
:1013E0001A6002220272002242825A50F820012121
:1013F00010254942094C000119501859A8431851A9
:10140000F4200001195080301950DA6680221968E2
:1014100012060A431A6030BD880F0000480F000012
:10142000F7B5F4220468794B1201E6580500A6507E
:10143000E258164201D0E3589E430223FF331E4276
:1014400000D0A6E00120F3064AD52B7A042B27D042
:10145000C22292006B8AA1589BB2C905C90D0A1C11
:10146000082900D90822180092B29918019289B26D
:1014700087B2B94200D983E000208B4201D86A4686
:10148000908805221B189BB26B826B8A2A729BB2D2
:1014900001216F69A869B847FC2301221B01E250B2
:1014A00002232B7200236B82812380229B00E15850
:1014B00052020A43E250E25855490A40E2500122E2
:1014C0005449635893436350F82310211B01E250A1
:1014D000514AA3588B43A350F42330221B01E250FE
:1014E000760665D52B7A022B5AD1636EDB0653D56F
:1014F000042200236E691900A8692A72B0470028E7
:101500004ED0F82201231201A350424AA350F423E3
:1015100030221B01E25010233F4AA1580B43A35035
:10152000AA790123002A41D1E366F82201263B4B28
:101530001201E358A35033423DD10120FC22384B25
:101540001201E358A350DB075CD5C2222C6892003D
:101550006B8AA2589BB2D205D20D111C082A00D961
:10156000082118008AB2991889B286B2B14240D8CF
:1015700000208B4200D8101C1B189BB26B82F7BD59
:10158000D027BF00E759BC466246EF683A540130A5
:101590006EE700263000A3E705232B720028B6D1A2
:1015A0000223E3662800FFF715FFE8E7EB71BCE7CD
:1015B0000028BAD1F6E76B6904221F000023A8694E
:1015C0001900B8470028B8D1124AA358B343A35012
:1015D000F8231B01E650812380229B00E158520230
:1015E0000A43E250E2580A490A40E2500223E36605
:1015F000A4E7D026B600A659B4466746EE6837542D
:101600000130B2E70028BAD1CCE7C0464C0F000049
:10161000FFFFFEFF880F0000480F00008C0F000046
:10162000CC0F0000F0B5437102230372002308AC15
:101630002488079D0482059C02714461069C4382B4
:101640008461099C0160C560C46120480B608025ED
:101650000866C1248120A40080006D02CB660127AA
:101660000D500D51F4251A4E7F422D018B514F51D3
:10167000184D52004B51083D4F51174D4B51FC2313
:101680001B01CF50FE231B041343C42292000F689A
:101690008B500823113AFF33FF3A8B500132FF324F
:1016A0008B5080231B063B430B6004230B500B51D4
:1016B0000B590A4A13400B510B5813400B5042234D
:1016C000FF338B51413BFF3B4B51F0BD882800401D
:1016D000480F0000880F0000C80F0000FFFFFEFF4A
:1016E00070B504688220800025580820401B8125A1
:1016F000C0B2AD00904208D90120605190258818F1
:10170000AD00814205D11A7070BD04226251020001
:10171000F4E70E7801316651F3E7000003B4714637
:10172000490840004900095E49008E4403BC7047E7
:10173000074B10B50400002B02D0002100E000BFD1
:10174000044B1B68002B00D09847200000F03AF8AB
:10175000000000009C04002003008218934200D186
:10176000704719700133F9E770B500260C4C0D4D28
:10177000641BA410A64209D1002600F025F80A4CEB
:101780000A4D641BA410A64205D170BDB300EB58EE
:1017900098470136EEE7B300EB5898470136F2E779
:1017A0001001002010010020140100201001002071
:1017B000002310B59A4200D110BDCC5CC454013353
:1017C000F8E70000FEE7C046F8B5C046F8BC08BC24
:1017D0009E467047F8B5C046F8BC08BC9E467047A8
:1017E00001000000010000000000000000000000F7
:1017F0000000000000000000010000000A000000DE
:1018000000000000000000000000000000000000D8
:1018100001000000040000000F00000000000000B4
:1018200000000000000000000100000004000000B3
:101830000F00000000000000000000000000000099
:10184000000000006FC75E10DE8EBD20B149E3309E
:10185000BC1D7B41D3DA25516293C6610D5498714A
:10186000783BF68217FCA892A6B54BA2C97215B2B6
:10187000C4268DC3ABE1D3D31AA830E3756F6EF3E2
:041880000000000064
:0818840014E9FF7F01000000E0
:0C188C00A0180000C8000020140000009C
:0818980018010020E20000002D
:1018A00018033200FF03FF03000400000000224081
:1018B000000404400800000000030440070000008A
:1018C000290200000000000045020000BD020000E7
:1018D000250B0000E9040000D902000051020000BD
:1018E0000000000000000000750100004901000038
:0200000490501A
:0C0000000002352111C500003A0B14AEBF
:0400000300000409EC
:00000001FF
