:10000000002000201503000055030000651A0000C1
:1000100000000000000000000000000000000000E0
:100020000000000000000000000000005503000078
:1000300000000000000000005503000061130000F4
:100040005503000055030000550300005503000050
:100050005503000055030000550300005503000040
:100060005503000055030000550300005503000030
:100070005503000055030000550300000000000078
:100080000000000000000000000000000000000070
:100090000000000000000000000000000000000060
:1000A0000000000000000000000000000000000050
:1000B0000000000000000000000000000000000040
:1000E0000800001000000000B011202000000000F7
:1000F0000000000000000000000000000000000000
:10010000801C800803D0401EFDD100BF00BF704797
:10011000EFF3108072B6704780F31088704730B5E7
:1001200001684118446862088A188368E40704D5A6
:100130004C461B1901E06D1C09D1914203D00D788A
:100140006DB2491C01E00C3030BD0C78491C1C70AC
:100150005B1C002DEFD46D1EF7D5EEE7000000000C
:100160006FC75E10DE8EBD20B149E330BC1D7B4100
:10017000D3DA25516293C6610D549871783BF682AB
:1001800017FCA892A6B54BA2C97215B2C4268DC39E
:10019000ABE1D3D31AA830E3756F6EF310B50C4CF6
:1001A0000DA20021200000F047F800BF10A201219D
:1001B000200000F041F8074C13A20021200000F0BD
:1001C0003BF800BF16A20221200000F035F810BD58
:1001D0000000044000020440010000000400000090
:1001E0000F00000000000000000000000000000000
:1001F00001000000040000000F00000000000000EB
:1002000000000000000000000100000001000000EC
:1002100000000000000000000000000000000000DE
:10022000010000000C0000000000000000000000C1
:100230000000000000000000FCB517002F4A002855
:100240005AD0002F58D00A0001230121914000917B
:1002500039680029009901D1416400E001647C689B
:1002600051008918019107268568AC460D46072183
:10027000A94065468D43264001998E402E438660F5
:100280008169009DA943E408234093400B438361A7
:100290003E7A1B494118FF2399431A4BC918009114
:1002A00093000F2400990D680F2199408D4334402D
:1002B0009C402C4300990C6052000323C468032126
:1002C00091408C43F9680B4093402343C36082689C
:1002D0000D4911403A6913068022520413400B4322
:1002E00083608268094911407A695306802292042A
:1002F00013400B43836000221000F6BD01005A003A
:100300000000FCBF00000240FFFFFFFEFFFFFFFDFB
:100310000020704700F046F900F076F9C0220A4943
:100320000A4800F07DF90A4A106801210143116072
:10033000BFF34F8F00F09CF900F0AFF900F0AEF979
:1003400000F0BAF900BF000000000000000000202B
:1003500000001040FEE70000010005D40121C006A6
:10036000C00E814097480160704701238B40002AEE
:1003700001D1436470470364704770B513004A00AD
:100380005618072485680722B24095431C40B440A4
:100390002C4384600124856901228A409543DA0850
:1003A00014408C402C43846170BD80B5864800F0B9
:1003B0004BFD01BD012185480175704780B50200E4
:1003C00082480169C068FFF7D0FF01BD804908601D
:1003D000704780B502000800110000F039FD40B2FE
:1003E00002BD80B5012801D17A4801E0FF2000025A
:1003F00000F018FE40B202BD80B500F0D0FD01BD96
:10040000FEB500F017FF0020C043FFF7A5FF00F086
:1004100079FF62B6082708246F4E022200213000BF
:10042000FFF7ABFF01253564052000F0B7FF7068CA
:10043000284001D140240CE0032200213000FFF7C6
:100440009CFF7564052000F0A9FF7068054000D08E
:100450004224012200213000FFF78FFF5B4D2C72F8
:100460005E48047000F009FE01280ED15C485D4929
:10047000088000F0D4FD002802D100F08BFE04E0DB
:1004800000212975584900F048FF00200190009094
:1004900000238C2080002A1829002800183000F042
:1004A0004AFC524956A000F0AFFF0720FFF754FF67
:1004B00001A80022002106C000F07AFE04002200FC
:1004C00080212800183000F044FA01ABB020400031
:1004D000610702D50093760D0EE0454A16785178F3
:1004E0000906090C0E43F10109180091167851789C
:1004F0000906090C0E43761C3C4201D0BC010DE0FC
:100500003C490B784A781206120C1343DA0113188F
:100510000C7848780006000C0443641C009AE02123
:100520002800183000F019FA01212800183000F0D6
:100530000DFAA2B2B1B22800183000F031FA37201B
:100540000090BB01802251022800183000F0E6FB29
:1005500002200090284B022200212800183000F0D1
:1005600011FA00200090002380220021280018307A
:1005700000F020FA214A37231100382000F015FD41
:100580002800183000F073FA00F00CFD002803D0AA
:1005900000F0D8FE00202875287D0028F0D000F05B
:1005A000F9FDEDE738B50A4C002500F0FFFE1028F4
:1005B00001D0256031BD2068802802D1256000F07F
:1005C0000DFE31BD00E100E0F8000020E000002059
:1005D000C000002080FF000000020440CC0000208A
:1005E00046490000C4000020B5030000AB03000032
:1005F0008AFF00000AFF0000EA000000FF0100007F
:10060000070000000300000080B5034903480160B3
:1006100072B600F03FFF01BD6588EDAC38000340C5
:1006200070B4103A03D378C9103A78C0FBD253079C
:1006300001D318C918C001D508C908C0D20704D30E
:100640000B880380891C801C002A01D50B7803705D
:1006500070BC70478B0701D18307E1D0124205D0EF
:100660000B78491C0370401C521EF9D170470000E2
:1006700010B5034A7A440832024C7C44A41D03E0BE
:100680002C1400006814000004E0101D11685118BB
:1006900088470200A242F8D110BD704780B50449D6
:1006A00079440C31034878440A3000F0F5FE01BD6E
:1006B00050F9FFFF4CF9FFFF0548014603B46846B7
:1006C00080F3098800BF00BF00BF00BF00F0F0FE4C
:1006D000A5EDF5FEFEB504000D000C2041436118A8
:1006E000F62040000E18FFF713FD01900121A940EC
:1006F000684601702700D237F088002822D0002DEC
:1007000005D130680078387030684078787030688B
:10071000C178090280780143091D318120005030E1
:10072000807A694609780143200050308172232085
:10073000205C002816D0206D0168002912D000200E
:1007400088470FE0B188306800F0C2FE002D02D16A
:1007500000203870787020005030817A6A46127814
:10076000914381720198FFF7D7FCF7BD70B5040083
:10077000C8071DD5FFF7CCFC0600F6204000251861
:10078000288900280DD0EA882B8929892868D21A5F
:100790004118FFF75FFF2889E988081AE8800020E0
:1007A00028813000FFF7B8FC00212000FFF792FFFE
:1007B000FFF7AEFC05005A20205C002809D023205A
:1007C000205C00280BD0206D0168002907D0002094
:1007D00004E0206D0168002901D00120884728002D
:1007E000FFF79AFC70BDF8B584B004000022002524
:1007F0000126212026545348477838096E46307028
:100800003807000F032908D1E262226390214900D2
:100810004C4800F05DFE012055E0012975D14949A1
:100820000E780396A11902910299DC310191454994
:100830000978032B20D2E2622263012B12D06A4690
:100840001278002A3ED102280AD14420205A81423F
:1008500038D20198E0624420205A2018E43008E0A1
:1008600000282FD1802E2DD202985430E062200033
:10087000DC302063012525E06A4612780F2A17D064
:100880009D1E020010D02A00022811D14420205AB7
:10089000039BC51A93B29D4200DA421A92B22A49CA
:1008A0000198FFF7D7FE03E06846007800280CD0D7
:1008B00001252520205C002804D1902149002148F1
:1008C00000F006FE280005B0F0BD0121200000F078
:1008D00007FE1C484178002912D1017806290FD162
:1008E00081785A22A25C0A40827009D0206D01688A
:1008F000002905D02320205C002801D00120884752
:10090000012025216054E584D2E70029D1D1E16A94
:100910000029CED0226B9142CBD2501A82B2082A43
:1009200002D2020401D1C4E7082000AB5B1CC2B2B2
:10093000200000F037FFE06A694649784018E0621D
:10094000B6E70000480300204A03002088228150B7
:100950007047543001704270704770B50600140043
:100960001D0008226430FFF775FE082221003000C8
:100970006C30FFF76FFE0822290030007430FFF75B
:1009800069FE70BD38B50C00150019000023002C5D
:1009900001D103005433049A5819FFF75BFE31BDAF
:1009A00003007C331970090A59707E300270120AF4
:1009B00042707047F3B583B017001D0001466846CA
:1009C000007C0C2250430818F621490044180126E7
:1009D000FFF79EFB0190E088694608806846018821
:1009E000491CA288E088131A2800083080B283428C
:1009F00016DA0026E088101A04282DDB81202268F0
:100A00006B461B88D05420688AB28654491C2068E3
:100A10008AB286542068491C89B24654E08819E09D
:100A200020686A461288875422688BB2D554491CC4
:100A300022688BB2D554481C290A226883B2D1544B
:100A40002A000A992368401C80B21818FFF702FE9A
:100A5000E0884019001DE0800198FFF75DFB6846C3
:100A6000017C0398FFF736FE300005B0F0BDF8B505
:100A700088B005002520285C002800D149E1A64F58
:100A80007878000900D038E1E88C694688723978B6
:100A90006846C172052101720020002106AA03C226
:100AA0002C004C346068006A04906846C07A039059
:100AB000049800280DD002A80190401C00906846C0
:100AC000837ABA1CC17A2800049EB047002800D05F
:100AD000F7E0B8780526039A921F00D1E7E0921E4E
:100AE00000D1A5E0921E00D185E0521E00D17BE02E
:100AF000521E3BD0203A74D0521E35D0521E70D0B8
:100B0000521E012A30D9921E6BD0921E06D0921F1F
:100B10002AD0921E28D0353A26D0D0E0492821D1BB
:100B20002C00DC342021200000F0D2FC00F061FC1D
:100B300006AA03C2082206A9200000F04FFE2800E2
:100B4000E430BA490F224B681B091340037009684F
:100B500009090A404270B64A116881701168090A91
:100B6000C17061E0092160E00A215EE06946897A8E
:100B700004295CDB46285AD1022668464672F8787A
:100B8000012818D160680369002B11D02900DC31DD
:100B90008C4678790002397908436146984769465E
:100BA000487209200856002802D16846067202E001
:100BB000072168460172F87800280ED16068426902
:100BC000002A0AD02900DC31787900023B791843E9
:100BD0009047694648720320087269460920085602
:100BE00000286ED0072068E06168C968002968D0D5
:100BF0008847801C60E06368D96900295FD09969E3
:100C000000295CD0502805D1012200210120DB6998
:100C100098474AE001208847002850D0012200214F
:100C200000206368DB69984702216846017248E04A
:100C30006946897A022944D3522842D1F87800289B
:100C400022D001283DD12320285C002805D06068EF
:100C50000168002901D0012088470021280000F008
:100C60003FFC052000F09AFB72B66068816800299D
:100C700001D000208847BFF34F8F6E496E48016056
:100C8000BFF34F8F00BFFDE7F62040002C18A1886E
:100C9000206800F01DFC00202081E0800721280052
:100CA000FFF764FD280000F027FC022004E00100AB
:100CB0002800FFF75BFD00206946087201E06846E6
:100CC00006720398403810280AD2EC6C002C07D02A
:100CD000BB1C6846827AC17A2800A0476946087220
:100CE0006846007A002808D000200090002368465B
:100CF000027A00212800FFF75DFE902149003800AC
:100D000000F0E6FB0020252168540021280000F0B7
:100D1000E7FB09B0F0BD00004803002030B5039C9C
:100D2000050040352960AA80EB802C815830047082
:100D3000240A447030BDF8B586B0040072D0059125
:100D400000296FD016006DD00D980100022969D8D6
:100D50008941C943C90F394D28706970202200218B
:100D6000281D00F044FD24220021F6204000201818
:100D700000F03DFD902252000021314800F037FD87
:100D800026650027E76421202754252027542220A8
:100D90002754012123202154242027540020E084BB
:100DA00028216054E086342160542000D230E06273
:100DB00080212000543000F08BFB200056301C496D
:100DC00009680170090A4170200058304821615AB1
:100DD0000170090A417020008E302026067047708D
:100DE00021009031FF20243000F00AFD291DF6205B
:100DF00040002150201886800497902040000390E6
:100E00000F48029001940F480090FE230598027A43
:100E10000168200000F060FC059840688168F204D9
:100E20000A43826007B0F0BD00000000E80F00F048
:100E300044F2FF0F0400FA050CED00E06804002006
:100E400048030020E707000080B500F090FB01BDDB
:100E5000F0B5A7B05C4A1378002B01D1032079E0EC
:100E60000190002809D00C005088814205D3918858
:100E7000A14204D2D1888C4201D002206AE05348BA
:100E8000844201D1022003E0401E844205D10120AA
:100E900000F091F9401C0199486104940024FFF787
:100EA00037F9694608704A4800680390494D286838
:100EB000029003984007400F062803D006214448BB
:100EC000016000BF0298000704D029680F20814309
:100ED000296000BF3026F6432968314010200843BE
:100EE00028608022019905A8083000F077FC3A4874
:100EF00005907F20069005AB384843603849016073
:100F000000BF00BF00BFA02109064268120F1207F0
:100F10008A420FD1049A1704324A3A430592436039
:100F2000314A026000BF00BF00BF4068000F0007E9
:100F3000884200D00124286806402E60029828606C
:100F400000BF03992248016000BF68460078FFF7A0
:100F5000E3F8200027B0F0BD80B50B001A4A1178E5
:100F6000002901D1032002BD002B06D01289824244
:100F700003D280218900884201D3022002BD802251
:100F8000C1011800FFF766FB002002BD0E490A7878
:100F9000C107C90F1140080000D0012070470A495D
:100FA0000870704708480078704730B5064C8025B7
:100FB000AD00A84204D2A94202D26080A180E280A2
:100FC000238130BD000000003C030020FF01000031
:100FD000080F034028000340B6D70000040010406B
:100FE00004000080B6D800000500008030B5002263
:100FF000D2430029824B10D0047854400F22250997
:101000001440A4001C596C402509224092009A58B3
:101010006A40491E401C0029EED1D04330BD7948BA
:101020004088704770B5040001D1012070BD0025D3
:1010300000F0F0FB0600201D00F0ECFB0100230097
:1010400056331A7858780006000C02436E488242E4
:1010500010D172188020400282420BD2002909D0A0
:101060003000FFF7C3FF06002000583000F0D2FB2D
:10107000B04200D00125280070BDFEB500240194C7
:101080000094624E002030706148FFF7CBFF0028CB
:1010900003D03178042008433070FF252D0228004A
:1010A000FFF7C0FF002803D03178082008433070D4
:1010B00001275848016889B2574A914204D1046017
:1010C00030780743377063E0016889B21B3A914278
:1010D00000D10197006881B2501C814200D1009775
:1010E0003078C108394214D03078810839424FD164
:1010F00080354448019A00991143090607D1297A9D
:101100006A7A1206120C1143444A914216D1448065
:101110003BE0009800280FD13078810839420BD18C
:1011200001980028E4D13E4800F074FB06003D48D9
:1011300000F070FB8642DBD30227DAE7297A6A7A6D
:101140001206120C1143384A91421ED02A7A697A4B
:101150000906090C0A43FA218900142A14DA2B7AA9
:101160006A7A1206120C13438B420DDB2A7A697AD3
:101170000906090C0A43142A05DA297A6A7A120642
:10118000120C114300E01421418007700120FEBDC4
:101190000020FEBD80211F48016000F00CF9BFF364
:1011A0004F8F224922480160BFF34F8F00BFFDE7F8
:1011B00016480078704710B5012801D1144C01E0A1
:1011C000FF2424022000FFF72DFF002804D1200077
:1011D000143000F01FFB10BD002010BD094801783D
:1011E000032900D1704780B50948022900D1803811
:1011F00000F010FB4168006880F308888847FEE72C
:101200005C0100003803002046490000C8000020AF
:1012100080FF0000C00000204C4200005943000045
:1012200014FF000094FF0000FFFF00000400FA0517
:101230000CED00E0F8B5302000F0C1F8274C80201C
:101240000006A060002000F09FFBFEF761FF070092
:101250000022234E32602348417E7160B2600078E4
:1012600030613220FEF74CFF0725ED4331682940FD
:101270000520084330603220FEF742FF3068054009
:101280000620284330603800FEF746FF002000F0BB
:10129000CDFA002803D00100062000F09BFB216856
:1012A0000C20814321602168C020814321603020CF
:1012B00000F085F80C490D4801600D490D480160AA
:1012C00030210D4801700D490D48016000F083FB8D
:1012D00000F090FBFEF762FFF1BD00BF2800034065
:1012E000080F0340E4F1FF0F006CDC02D400002083
:1012F00080BB0000D8000020D00000200000C05DAE
:10130000DC00002080B500221F480280426000F00F
:1013100083FB1E491E48016001BD70B505000C002D
:10132000FEF7F6FE060018480580446000211948C3
:101330000160012000F07AFB00F064FB3000FEF752
:10134000EBFE70BD10B5FEF7E3FE040000220E4870
:101350000280426000F060FB2000FEF7DDFE10BD61
:101360000D480068C00300D4704780B5064908885E
:10137000002802D0401E088001BD4868002800D027
:10138000804700F049FB01BD8C0400207FBB0000BA
:1013900014E000E018E000E010E000E080B501009B
:1013A000154800784843FEF7ABFE01BD14480168BC
:1013B000192008407047192111480160704710B585
:1013C0000021102801D8002004E0212801D20120AA
:1013D00000E00220094A146803239C43044314607C
:1013E0001368002800D01021102083431943116096
:1013F00010BD044803C87047D000002030001040E2
:101400005400034078F1FF0FF8B50024002824D0E1
:1014100042680023C05EC50018262E40FF27B74053
:10142000FD439207120EB240060004D4134B860807
:10143000B6009E1906E0124E03071B0F083B9B08DF
:101440009B00F61833681D402A4332600D4A12682B
:10145000D20703D500F004F800E00B4C2000F2BDE9
:101460008000084A1268D20704D5084A121810688A
:1014700011607047064908587047000000E400E01A
:101480001CED00E00000104001005600400000206C
:10149000400000007047000038B505000C00A54270
:1014A00005D02868401980472D1DA542F9D131BDCE
:1014B000FEF72EFF002801D0FFF7DAF800BF00BFCB
:1014C000002000BF00BFFEF79BFF00F0BBFA00004A
:1014D000002200BF094202D0491E4254FCD170478D
:1014E00002688171002906D1C179002903D0002149
:1014F000C1710120D066704730B501680A6852009A
:1015000052080A6002220272002200234382F42061
:1015100000010D18AA640020C0432864AB681024A1
:10152000A343AB602860FC231B01C850CA660A684D
:10153000802000061043086030BD70B50568448AFD
:10154000C2239B00EB181D68ED05ED0DA94200DDDF
:10155000290011700E19B6B203E0996BC26851559B
:10156000641CA5B2B542F8DB4482012070BDFEB513
:1015700006003568012000216A461170F421090136
:101580006C18E16801912160E168019A0A4005D078
:10159000019BE2681946114059400191019AFF21CF
:1015A000891C114001D0002001900199C90632D553
:1015B000317A042910D06A4608213000FFF7BDFFB8
:1015C00005203072738A05220121B0697769B84716
:1015D0000122FC2109016A5002213172002171822D
:1015E000812189006A588021490211438122920099
:1015F000A95011466A586849114081229200A950A9
:10160000A26C01218A43A2642164A26810218A434A
:10161000A26030212160019949062AD5317A022938
:101620001FD1696EC90619D5042030720023042227
:101630000021B0697769B847010002D00121216417
:10164000A164012813D130212160A2681021114327
:10165000A160B179002907D1012109E0052131728A
:10166000EFE70220E86633E00121F17101E0022199
:10167000E96601282AD1E16C2164C9071AD5002343
:1016800004220021B0697769B847010012D1A16C2A
:1016900001229143A16401212164812189006918FB
:1016A0000B6812041A430A600B683B4A1A400A602E
:1016B0000221E966FC2109016918CA680A60D1079C
:1016C00004D56A4608213000FFF737FF002802D111
:1016D0003000FFF711FFF7BDF5B5079F08980A9A8C
:1016E0000B9C6D462D79009E3571009D6B71009BA2
:1016F00019600223009D2B7200260023009D6B823F
:10170000099B009DEB60009B1A82009A5761009A2A
:1017100090610098C4610E6020480866CE66400D56
:10172000081880235B024360C02292008A1853602D
:10173000009B1B68F42424011D19AE600024E443BF
:101740002C60AE642C64FC252D015B199E601C602E
:101750000B686C4624796400FE252D042543156131
:10176000FF24083404601460802424061C430C60A9
:10177000042343605360084B54681C405460426823
:1017800013404360FF204230054A885001208032D8
:101790008850F3BD00000000FFFFFEFF88280040D6
:1017A000480F000030B5046881208000201808250B
:1017B00044682C1BE4B2A24203DA01240460140042
:1017C00001E004220260002202E04D5DC563521C6C
:1017D000D5B2A542F9DB1A7030BD000010B5002467
:1017E00002E00B5D0355641C9442FAD310BD0B005C
:1017F000110000D1704780B51A00FFF76BFE01BDE4
:1018000084460870000A4870000A8870000AC87090
:1018100060467047C3788278417800781B021A438B
:10182000090212040843104370470000D0B50100BC
:1018300026480A0001D001291BD1254F3A6803230D
:1018400003261640B14212D00A0003D1BA68002A1A
:1018500006D4D0BD01290DD11B4A1268002A09D037
:1018600000203C689C430B4023433B60D0BD0020DC
:10187000D0BD801ED0BD0000D0B513002F4A8F0010
:101880001C0206000BD104291BD2FF2B19D83948A2
:10189000C019026838491140FF2212020DE00128E8
:1018A0000FD104290DD280204002834209D233484F
:1018B000C019026832491140324A22400A4302608C
:1018C00000221000D0BD00009404002003004A0054
:1018D00028000340030019480F2B00D3704710B5B0
:1018E0000C0001D0012902D1042A04D310BD022921
:1018F0000BD1022A09D28901C02008409106890E25
:1019000001432E489A008150002010BD02000B4870
:10191000130001D0012A02D1042904D37047022AFE
:101920000BD1022909D2264892018906890E11435A
:10193000244A0A43026000680020704701004A0000
:1019400002002148130001D0012A02D1042904D346
:101950007047022A0DD102290BD29201C0201040FB
:101960008906890E01438020C00508431449086098
:101970000020704700020140FF00FFFF000301400C
:10198000FF0000FF00FFFF0010B5010000200F4A1C
:101990000B0003D001290AD002290DD1136830248D
:1019A000A3430C01302121401943116010BD9368FD
:1019B000002BF3D4064810BD034810BD00010140C0
:1019C0000000014000FF008001004A0028000340A1
:1019D00003004A00704780B500210120FFF7B0FFE7
:1019E000002200210120FFF747FF00210120FFF71F
:1019F0008DFF01BD80B5002201210020FFF76AFFA5
:101A000001BD00000E480268022111430160026816
:101A100001211143016070470948026802218A438D
:101A20000260026801218A430260704704490A6823
:101A300004239A4383000420034013430B60704740
:101A400010E000E080B500F001F801BD074638461F
:101A500000F002F8FBE700002021090326311820DE
:101A6000ABBEF9E780B500F001F801BDFEE770B448
:101A70000121002213E00368001D0B4202D04D46F5
:101A8000EB185B1E1A601B1D241F042CFAD21D00CC
:101A9000A60701D51A80AD1C0C4000D02A7004683E
:101AA000001D002CE7D170BC70470000C3FFFFFF92
:101AB00004000000C000002004000000C40000205A
:101AC00004000000C800002004000000CC0000203A
:101AD00050010000480300200000000043E6FFFF23
:101AE0000C000000A8000000D00000200018FC003E
:101AF00004366E01C05DFC000AE02E0000054000C7
:101B000000044008FC0003020440028100810081BF
:101B1000008100DD0001BD03FA0015CD030000E3E4
:101B2000030000D3030000590F00008D0F0000F9DF
:101B300003F60002030032FB0005FF010002FF0173
:0200000490501A
:0C0000000002202011B000003A0B14AEEA
:04000003000006B93A
:00000001FF
