:100000000030002009040000190200001B0200005B
:1000100000000000000000000000000000000000E0
:1000200000000000000000000000000019020000B5
:1000300000000000000000001902000001030000A1
:100040001902000019020000190200001902000044
:100050001902000019020000190200001902000034
:100060001902000019020000190200001902000024
:100070001902000019020000190200001902000014
:10008000190200001902000000000000000000003A
:100090000000000000000000000000000000000060
:1000A0000000000000000000000000000000000050
:1000B0000000000000000000000000000000000040
:1000C0000000000000000000000000000000000030
:1000D0000000000000000000000000000000000020
:1000E0000800001000000000BA11202A00000000E3
:1000F0000000000000000000000000000000000000
:100100000448054B10B5834203D0044B002B00D0AC
:10011000984710BD180100201801002000000000C1
:1001200006480749091A8B10C90FC91810B549109C
:1001300003D0044B002B00D0984710BD18010020BD
:10014000180100200000000010B5074C2378002B98
:1001500009D1FFF7D5FF054B002B02D0044800E082
:1001600000BF0123237010BD180100200000000013
:1001700048180000054B10B5002B03D00449054872
:1001800000E000BFFFF7CCFF10BDC046000000003C
:100190001C01002048180000402292029A1A924640
:1001A0007047C046174B002B00D1134B9D46FFF7FD
:1001B000F3FF00218B460F461348144A121A01F030
:1001C000AFFA0E4B002B00D098470D4B002B00D000
:1001D00098470020002104000D000D48002802D09F
:1001E0000C4800E000BF01F0A3FA2000290000F055
:1001F000A9F901F081FAC0460000080000000000E3
:100200002D0500000030002018010020A00400206F
:100210000000000000000000FEE7FEE70122014BA5
:100220001A70704734010020054B1969DA68012300
:100230008B40002801D1536470471364FCE7C0462B
:10024000D4000020014B18607047C046C000002059
:10025000014B18707047C04638010020010070B58E
:100260005631144A098803000120914221D180258A
:1002700019685A68AD028C18AC421AD2002A18D0FC
:100280009D6D01230F260C485B420A7801315340D3
:100290001A0933409B001B585A4013093240920000
:1002A00012585340A142F0D1D843401B431E9841FD
:1002B000C0B270BD46490000081800000138434232
:1002C0005841044B000210B5C018FFF7C7FF40B2F9
:1002D00010BDC04680FE0100024B1B781840012370
:1002E00018407047380100200221044B1A688A43E5
:1002F0001A601A6801398A431A60704710E000E0FA
:10030000094B10B51B68DB0305D5084A1388002B81
:1003100002D0013B138010BD054B1B68002B00D0A1
:100320009847FFF7E1FFF6E710E000E054030020F4
:10033000580300200322054B196B9143013A0A43ED
:1003400010211A631A6B0A431A63704700001040A9
:10035000F0B500284CD0012413688C40002B48D104
:100360004464536803279C4607231E004F43BE4046
:100370008568B54366463340BB401D433307DB0FFA
:100380008B40856085698F00A5432B430F25AC46C4
:10039000BD4066468361184B184CC3181B0A1B19D5
:1003A0001B021C684900AC432500147A3440BC4051
:1003B0002C431C6003248C400325C368A343D468EA
:1003C0002C408C4023438024C360136964041B06C3
:1003D000816823400A4C21400B438360536980228B
:1003E0005B06920481681340064A0A401343836007
:1003F000F0BD0464B5E7C0460000FCBF0002400049
:10040000FFFFFFFEFFFFFFFD1923284970B54A6D6E
:100410001A40274B102A1BD000221A60254B8B63F1
:1004200072B6C0222449254801F0A6F90123244AC6
:1004300011680B431360BFF34F8F224B2248834256
:1004400027D30020214B22498B422DD3FFF7AAFE50
:100450001A68802AE2D100221A601E4B1B78032BF7
:10046000DCD0023B5A1E93411B4A1B029B181B689F
:100470001A6882F308885B689847FEE71C68910059
:1004800065585C680132655099688A42F6D30C332E
:10049000D5E70022F8E71C689500285101325C6816
:1004A000A242F8D30833CFE70022F8E70000034068
:1004B000C00000206588EDAC0000000000000020B6
:1004C0000000104054180000601800006018000080
:1004D00068180000C900002080FE010010B5024825
:1004E00000F04CFF10BDC0463C0100200D4A030047
:1004F0000800117810B50322002910D0013A002815
:100500000DD0094A11880222994208D2802189001F
:100510008B4204D2FE32190201F02EF900221000A3
:1005200010BDC04638010020CE00002070470000FA
:1005300010B5034B1B78584300F01EFB10BDC0469E
:10054000C8000020F0B589B0FFF7F4FE8023302208
:10055000DB4C1B062363A36ADA4D9343A36200F0CE
:1005600014FB0021D84AD94B6151D35C0600D8480E
:10057000DBB22350F1231B01E150D9239B00D35C54
:10058000D44ADBB2A3503220072700F0F5FA052346
:1005900062593220BA431343635100F0EDFA062347
:1005A00062593000BA431343635100F0F2FA032258
:1005B000A36A134205D0236B002B02DAA36A93438C
:1005C000A3620C22A36A05279343A362A36AB432F1
:1005D0009343A362FFF7AEFE30228521BE4B890014
:1005E0001A70BE4BBE4ABF481A605A58BE4D0240F0
:1005F0005A50BE4A02211A601B68BD4BBD4A5F605B
:10060000BD48FFF7A5FE28000221BC4AFFF7A0FE67
:100610000021BB4ABB48FFF79BFE0121B948BA4AFB
:10062000FFF796FEB94B02930023029A1380B84A53
:1006300003921360FFF758FEB64BB74A536062B699
:10064000B64BAA6804261A4080231343AB60AB69FB
:100650003800B343AB612E64FFF76AFF6A6840233A
:10066000520713D5AB68AD4A38001340C02213437C
:10067000AB60AB69B343AB616E64FFF759FF012117
:100680006A68082392080A4200D03A33A968A34A4C
:100690000426114040220A43AA60AA69A04FB2432F
:1006A000AA61A04AA04813720492A04A13700023C2
:1006B0003B70FFF7D3FD002802D03B781E433E700D
:1006C0009B48FFF7CBFD002803D008233A7813435B
:1006D0003B709849984A0B689BB2934200D097E0D0
:1006E00000230B603A78013313433B700023934E91
:1006F000934A300004990193009300F0BFFDC2209B
:10070000904B80001958774A1140C02212020A43C8
:100710001A5001228C490868104205D0096811421C
:1007200002D08A4A8A4951668025AD001D600023A7
:100730003F789021FFB23A0030000693079300F013
:100740006EFB06AA7B0705D4774B5D8901352A022B
:10075000E032ADB23F0700D43FE1802706ABBF00D7
:10076000E021300000F05FFB0121300000F054FB7D
:1007700029003A00300000F07BFB1B2580238022FB
:10078000802130009B0052008902009500F064FD3A
:100790000222704B002130000233009200F059FB1E
:1007A000002180220B003000009100F06BFB1C2226
:1007B000694B1A80694B6A4A1A806A4B1A806A4BE5
:1007C0001D805E4800F0C0FB684B694F1B78002B12
:1007D0000DD000F0DAF900250600029B1D80039B76
:1007E0001D60FFF781FD300000F0D3F93D703B78CC
:1007F000002BE6D080224F4B1A6019236365BFF3AC
:100800004F8F5C4B5C4ADA60BFF34F8FC046FDE709
:100810000E680B68B6B29BB29C463B781B0718D497
:10082000564B9C4512D03B785B070FD43E48544D45
:1008300001230200AE4212D03D4B5B691D004369AB
:1008400028000593059D0123A84208D30223384AB6
:1008500005E03B785B0700D548E70123324A494869
:10086000494D6044002806D048483018464270413F
:10087000C6B2002802D000222A8004E0128944482F
:10088000824217D12E80434A1370434B434A1A8049
:100890002B889DB2002B00D084E080330B60673B37
:1008A0006365BFF34F8F334B334ADA60BFF34F8F2B
:1008B000C046FDE73A488242E5D0FA229200DBE7E3
:1008C00000000340080F000000F0FF0F7D03000050
:1008D0000C0F0000180F0000C800002000000140AD
:1008E00005000040FF00FFFF0003044005FF0080FB
:1008F000FC000140C017000000020440A8170000DF
:10090000F017000000050440D81700005403002031
:10091000580300207FBB000010E000E03FFEFFFF17
:10092000C6000020D400002080FF0100C700002086
:1009300080FE0100C00000204C4200003C0100206D
:10094000E800002000E100E000001040000000206E
:10095000DD040000E800000036010020CC0000208B
:10096000FF010000D0000020CE0000203801002050
:100970003401002000ED00E00400FA0532420000DE
:1009800031420000CEBDFFFFCA000020CFBDFFFFF7
:1009900059430000C9000020C4000020464900005F
:1009A000FFFF00000026104B1E7000F0EEF8029BC7
:1009B000039A1D800D4B0E49136004228E600B6854
:1009C00013430B6002230A6813430B6001230A6878
:1009D00013430B6000F0DDF888E6064B5F890137B2
:1009E0003B02E033BFB2BBE6340100201D02000031
:1009F00010E000E080FE0100014B18685968704764
:100A000078F2FF0F002310B5934200D110BDCC5CEB
:100A1000C4540133F8E70000F0B52E4D2E4EC7B098
:100A20000C00039000F0B1F8AB590290019307233A
:100A3000019AAF6A1340062B02D00623AB51C04681
:100A40000F22174203D0AB6A9343AB62C0463023F8
:100A5000AA6A21009A43203B13438022AB625200D2
:100A600006A8FFF7CFFF1D4B04AA0493FF230593AD
:100A70001B4B9A601B4A5A60C046C046C0469A68E3
:100A80000124120F0A2A14D1039A1104164A0A43A8
:100A9000049204AA9A60154A5A60C046C046C046ED
:100AA0009C68C023240FDB052407E418631E9C41C7
:100AB000E4B23022AB6A9343AB62AF62C046019BA3
:100AC000AB51C0466B46187A00F063F8200047B07F
:100AD000F0BDC04600000340080F0000B6D700007C
:100AE0000000104004000080B6D80000050000801F
:100AF000184B70B51B7804000D000320002B21D08B
:100B0000013800291ED0144B1B88A3421AD8134B5E
:100B10001B88A34203D2124B1B88A34212D1114B54
:100B20009C4211D1104E3000FFF798FB00239842F1
:100B300000D173692A000133943213602900200028
:100B4000FFF76AFF40B270BDFF235B009C42F5D106
:100B5000064EE8E73801002036010020CC000020D6
:100B6000D0000020FF01000080FE010080FF010096
:100B700010B500F0D5FD10BD0230800803D001385B
:100B8000FDD1C046C046C0467047EFF3108072B634
:100B9000704780F310887047F8B504000D00FFF728
:100BA000F4FF0C236B43E3181A002600F332FF32E4
:100BB0001288070091B25436002A2FD0002D0AD196
:100BC000F62322005B00E358D232197811705A786C
:100BD0002300D3331A700C226A43A2181300ED339A
:100BE000FF331B68F5329978DB78FF321B020B4329
:100BF00004339BB213800122AA40B3791343B3712B
:100C0000231DDB7F002B05D0236D1B68002B01D03B
:100C1000002098473800FFF7BCFFF8BD1A00ED33FD
:100C2000F132FF32FF331288186800F079FD002D91
:100C300004D12300D334D2331D7025700122AA4081
:100C4000B3799343B371E5E7F8B50400C90721D53B
:100C5000FA25FFF79AFF6D00635B0600002B12D0A8
:100C6000F623F9275B007F00615BE058E25B635B82
:100C70004118D21A00F080FD625BE35B9B1A9BB2C5
:100C8000E353002363533000FFF783FF002120006C
:100C9000FFF782FFFFF779FF230054339B790500AC
:100CA000002B0CD0231DDB7F002B04D0236D0020F4
:100CB0001B68002B08D12800FFF76BFFF8BD236DE0
:100CC0001B68002BF7D001209847F4E7F7B5012502
:100CD0001E004F4F831CDD7704007B78032908D169
:100CE0000021C162016390223800520000F018FD1B
:100CF0001CE0012900D06BE00F201A090340022EEE
:100D000027D80025E5622563012E13D0AA420DD114
:100D1000022B0DD1A31D3878DA8F904206D20D0038
:100D2000D633083218189B18E06223632800FEBDF2
:100D3000002BFBD100230025FB563A78AB42F5DBB4
:100D4000230054339B18E3622300DC332363013513
:100D5000ECE70F2A13D0A51D002B17D0022B0ED1C4
:100D600020003B78EA8F023EDC30B6B2C018D21ABF
:100D7000B24200DD3200274992B200F0FDFC0125AD
:100D80000634E37FD9B2002BD0D1ACE7002AF6D1EC
:100D9000200000F0F7FA7B78002B13D13B78062B6C
:100DA00010D123005433BA789B791340BB7009D01B
:100DB000236D1B68002B05D0221DD27F002A01D095
:100DC000012098470123023EB6B2EB77E684D6E7CE
:100DD0000025A942D4D1C06A051ED1D0236B0D00D5
:100DE0009842CDD21B1A9BB2002BC9D06A46D51DA2
:100DF0001A1C082B00D908222B000100D2B22000B7
:100E000000F052FCE36A2A789B18E362B7E7C04619
:100E10007C0300207E03002088300160704754303E
:100E2000017042707047F8B508260400170064305E
:100E300032001D0000F0A0FC2000320039006C30B0
:100E400000F09AFC200032002900743000F094FC7D
:100E5000F8BD70B505000020140004AA1278814284
:100E600001D1280054301900001900F085FC70BD34
:100E700003007C3319709A70090A120A7F30597086
:100E800002707047F7B50F001C0016000090FFF7C6
:100E90007CFE0C237B43009A0190D3181D001A009E
:100EA000F335F132FF35FF3228881288298880B265
:100EB000511A8C462100083189B28C4522DA2988E2
:100EC0000024521A032A14DD8121ED33FF331A68FE
:100ED00011541968421C92B28C541968821C92B247
:100EE0008C541B68033080B21C542B8804339BB293
:100EF0002B800198FFF74DFE39000098FFF74CFE5C
:100F00002000FEBDED33FF331A68E1B216541E68AF
:100F1000421C92B2B1541E68821C92B2B15419683C
:100F2000C21C92B2260A8E54043082B21868089904
:100F30008018220000F020FC2B8804341B199BB27F
:100F400001242B80D5E70000F0B5831D89B0039301
:100F5000DB7F0400002B00D1A8E0B74F7B781B0992
:100F600000D097E0C38C02AADBB203930E239B1838
:100F70000522002000211A70226D06900791166A42
:100F80003D78002E5FD13B2D56D8AB4A2B2D08D88B
:100F9000A81FC3B2062B44D90E2302AA9B18052210
:100FA0008EE0290001232C39C9B28B40A3490B42A2
:100FB00044D1252019000140034250D1332DEBD1FB
:100FC0009378492B00D031E12600DC362022300016
:100FD00000F0A6FBFFF710FD0822069007913000F5
:100FE00006A9FFF70FFDF0210F222000944B090600
:100FF000CB58E4301B0913400370924BCB582100AF
:101000001B0913402200E532137091238E4A9B0086
:10101000D058E6310870D2582300120AE7331A700C
:1010200090E00628B8D800F05DFB4300B7FF4D0004
:10103000B7FF9200AE00BB00702DADD10E2302AA07
:101040009B180A223CE001930F2302A95B1800932E
:10105000290020007D4A039BB047002893D00E262C
:1010600002ABF6182B00403B0F2B0AD8E36C9C46D2
:10107000002B06D0A9B220006546744B039AA847FE
:1010800030703278002A05D0002120000B0000913A
:10109000FFF7F8FE902200213800520000F040FBDC
:1010A0000021A31D2000D97700F06CF909B0F0BD34
:1010B0002000B978FFF7C8FD0E2302AA9B18002272
:1010C0001A70CCE7039B012BC9D99378522BC6D158
:1010D000D678002E22D0012EC1D1231DDB7F002B1C
:1010E00005D0236D1B68002B01D0300098470021EC
:1010F000200000F047F90520FFF71AFA72B6236DB9
:101100009B68002B01D000209847BFF34F8F504BB6
:10111000504ADA60BFF34F8FC046FDE7F8235B000B
:10112000E25A043B3100E05800F0FAFAFA235B007F
:10113000E652023B20000721E652FFF785FD200022
:1011400000F02CF90E2302AA9B180222B8E7216DA9
:10115000CB69002B00D11FE78969002900D11BE76B
:101160009278502A04D14F3A002110009847E9E7BD
:1011700001208847002800D10EE70021236D0122BD
:101180000800DB69F2E7236DDB68002B00D166E71E
:10119000B87898470E2302AA02309B1818705EE7B1
:1011A000039B032B00D85AE79378462B00D056E7D1
:1011B0000F2602ABF61802233370D378012B10D11F
:1011C000236D1B69002B2CD021009088DC3100227C
:1011D00098473070002824D10E2302AA9B180222BF
:1011E0001A700E26144A02A9D3787618002B0DD156
:1011F000236D5B69002B09D021009088DC31984772
:101200000F2302AA9B181870032333700F2302AA1E
:101210009B181B785BB2002B00D120E707233370AB
:101220001DE70E2302AA9B180722D9E70E2302AA64
:101230009B18092244E7C0467C0300201AA0000046
:10124000EC0F0000E80F000000F0FF0F7E0300200D
:1012500000ED00E00400FA0510B50164811DCA87A5
:1012600002000832D387030002AC248854300A33CA
:10127000DC870471240A447110BD0000F0B589B008
:101280000FAB04000E0015001B7800286CD000295D
:101290006AD0002A68D0022B66D8344B202218006E
:1012A00000210693FFF764FC2000ED30242200218A
:1012B000FF30FFF75DFC90222D4B002118005200FB
:1012C0000793FFF755FC25650025A31CE564DD7732
:1012D000A31DDD77802327005B006384631DDD771A
:1012E0000433E584DD772B335437E5861D709E3358
:1012F00080222900E362380000F012FA91231D4A8F
:101300009B00D258232193B21B0AFB702300BA70B2
:1013100048331B7820223B71230049331B7820007F
:101320007B7123008E33997022391A705D70D970E9
:101330001D715D71F62306995B00E1500433E252A2
:10134000D03B0393079B327A02930B4B3168D2B2A6
:1013500000930495FE23019400F048F980217268FF
:10136000490493680B43936009B0F0BD5C0300200F
:101370007C03002000F0FF0FCD0C000010B500F042
:1013800033F810BD03688171002905D1C279002AA4
:1013900002D00122C171DA6670470000036830B5DF
:1013A0001A680F49520052081A6002220272002283
:1013B00042825A50F820012110254942094C00016F
:1013C00019501859A8431851F420000119508030C1
:1013D0001950DA668022196812060A431A6030BD75
:1013E000880F0000480F0000F7B5F4220468794B1D
:1013F0001201E6580500A650E258164201D0E35803
:101400009E430223FF331E4200D0A6E00120F306D4
:101410004AD52B7A042B27D0C22292006B8AA1587E
:101420009BB2C905C90D0A1C082900D90822180059
:1014300092B29918019289B287B2B94200D983E079
:1014400000208B4201D86A46908805221B189BB267
:101450006B826B8A2A729BB201216F69A869B847B7
:10146000FC2301221B01E25002232B7200236B821A
:10147000812380229B00E15852020A43E250E25845
:1014800055490A40E250012254496358934363503E
:10149000F82310211B01E250514AA3588B43A3505B
:1014A000F42330221B01E250760665D52B7A022BFD
:1014B0005AD1636EDB0653D5042200236E691900EE
:1014C000A8692A72B04700284ED0F82201231201E1
:1014D000A350424AA350F42330221B01E2501023B0
:1014E0003F4AA1580B43A350AA790123002A41D1B6
:1014F000E366F82201263B4B1201E358A350334226
:101500003DD10120FC22384B1201E358A350DB07E8
:101510005CD5C2222C6892006B8AA2589BB2D2057D
:10152000D20D111C082A00D9082118008AB2991876
:1015300089B286B2B14240D800208B4200D8101C3C
:101540001B189BB26B82F7BDD027BF00E759BC4682
:101550006246EF683A5401306EE700263000A3E798
:1015600005232B720028B6D10223E3662800FFF77B
:1015700015FFE8E7EB71BCE70028BAD1F6E76B6925
:1015800004221F000023A8691900B8470028B8D119
:10159000124AA358B343A350F8231B01E6508123FA
:1015A00080229B00E15852020A43E250E2580A4965
:1015B0000A40E2500223E366A4E7D026B600A6590B
:1015C000B4466746EE6837540130B2E70028BAD116
:1015D000CCE7C0464C0F0000FFFFFEFF880F000065
:1015E000480F00008C0F0000CC0F0000F0B54371D5
:1015F00002230372002308AC2488079D0482059C03
:1016000002714461069C43828461099C0160C5604B
:10161000C46120480B6080250866C1248120A40095
:1016200080006D02CB6601270D500D51F4251A4E36
:101630007F422D018B514F51184D52004B51083DA7
:101640004F51174D4B51FC231B01CF50FE231B0460
:101650001343C42292000F688B500823113AFF33C2
:10166000FF3A8B500132FF328B5080231B063B43E5
:101670000B6004230B500B510B590A4A13400B51BA
:101680000B5813400B504223FF338B51413BFF3B20
:101690004B51F0BD88280040480F0000880F000023
:1016A000C80F0000FFFFFEFF70B5046882208000B5
:1016B00025580820401B8125C0B2AD00904208D9B2
:1016C0000120605190258818AD00814205D11A7023
:1016D00070BD042262510200F4E70E7801316651B8
:1016E000F3E7000003B47146490840004900095E71
:1016F00049008E4403BC7047074B10B50400002B13
:1017000002D0002100E000BF044B1B68002B00D07A
:101710009847200000F03AF8000000009C040020E8
:1017200003008218934200D1704719700133F9E722
:1017300070B500260C4C0D4D641BA410A64209D1B7
:10174000002600F025F80A4C0A4D641BA410A6429E
:1017500005D170BDB300EB5898470136EEE7B300F2
:10176000EB5898470136F2E71001002010010020E5
:101770001401002010010020002310B59A4200D16E
:1017800010BDCC5CC4540133F8E70000FEE7C0464E
:10179000F8B5C046F8BC08BC9E467047F8B5C046D0
:1017A000F8BC08BC9E467047010000000100000024
:1017B0000000000000000000000000000000000029
:1017C000010000000C00000000000000000000000C
:1017D0000000000000000000010000000400000004
:1017E0000F000000000000000000000000000000EA
:1017F00001000000040000000F00000000000000D5
:101800000000000000000000000000006FC75E1034
:10181000DE8EBD20B149E330BC1D7B41D3DA2551BA
:101820006293C6610D549871783BF68217FCA892BA
:10183000A6B54BA2C97215B2C4268DC3ABE1D3D3F2
:0C1840001AA830E3756F6EF30000000082
:08184C004CE9FF7F01000000E0
:0C18540068180000C8000020140000000C
:0818600018010020E200000065
:1018680018033200FF01FF010002000000000540DC
:1018780000050440080000000002044002000000C7
:10188800290200000000000045020000BD0200001F
:10189800F10A0000ED040000D90200005102000026
:1018A8000000000000000000750100004901000070
:0200000490501A
:0C00000000022A2011BA00003A0B14AED6
:0400000300000409EC
:00000001FF
