:020000040000FA
:1000000000200020810C0000790C00007B0C000017
:1000100000000000000000000000000000000000E0
:10002000000000000000000000000000790C00004B
:100030000000000000000000790C0000B50C00007A
:10004000790C0000790C0000790C0000790C00009C
:10005000790C0000790C0000790C0000790C00008C
:10006000790C0000790C0000790C0000790C00007C
:10007000790C0000790C0000790C000000000000F1
:100080000000000000000000000000000000000070
:100090000000000000000000000000000000000060
:1000A0000000000000000000000000000000000050
:1000B0000000000000000000000000000000000040
:1000C0000000000000000000000000000000000030
:1000D0000000000000000000000000000000000020
:1000E0000800001000000000B011202000000000F7
:1000F0000000000000000000000000000000000000
:1001000000F002F800F04EF812A030C808382418A9
:100110002D18AC4201D100F045F80FCCA246AB46F9
:100120000CA730CF2D1B083F3F197C427F1E544443
:100130002D090426F441641EAC4201D300F032F8CC
:100140000126334200D0FB1A3343984754465D469C
:10015000DFE70000E016000000170000103A02D3AD
:1001600078C878C1FAD8520701D330C830C101D558
:1001700004680C60704700007047000000230024F2
:1001800000250026103A01D378C1FBD8520700D3CE
:1001900030C100D50B6070471FB500F0BBF81FBD24
:1001A00010B510BD03488546FFF7F6FF01F0B0F823
:1001B00000F096F80020002003B4FFF7F1FF03BC25
:1001C00000F098F870B505460C46164602E00FCCD4
:1001D0000FC5103E102EFAD2082E02D303CC03C551
:1001E000083E042E07D301CC01C5361F03E0217859
:1001F0002970641C6D1C761EF9D270BD00000000D1
:10020000801C800803D0401EFDD100BF00BF704796
:10021000EFF3108072B6704780F310887047F8B51E
:10022000042A2CD3830712D00B78491C0370401C7E
:10023000521E83070BD00B78491C0370401C521EC2
:10024000830704D00B78491C0370401C521E8B0797
:100250009B0F05D0C91ADF002023DE1B08C90AE066
:10026000FFF7B0FFF8BD1D4608C9FD401C46B4406D
:100270002C4310C0121F042AF5D2F308C91A521ECB
:10028000F0D40B78491C0370401C521EEAD40B7842
:10029000491C0370401C012AE4D409780170F8BDA0
:1002A00001E004C0091F0429FBD28B0701D502809D
:1002B000801CC90700D00270704700290BD0C3070B
:1002C00002D00270401C491E022904D3830702D5C4
:1002D0000280801C891EE3E70022EEE70022DFE7B0
:1002E00010B50446C046C0462046FFF765FF10BD66
:1002F0007047000001491820ABBEFEE7260002004F
:10030000D2B210B513029A1813049A18FFF7D5FF4A
:1003100010BD000008487CB5784400900748784438
:10032000009C0546019004E02046016808188047BB
:10033000241DAC42F8D17CBD3815000036150000F4
:10034000F0B583B000284BD0002A49D01368002BA9
:1003500001D0402400E04424012502958D40055140
:10036000032601964E4357680C4607213B070F4072
:10037000B740B14086688E433E438660D90F0094F3
:10038000A1408369AB430B438361A4000F231D4647
:10039000A540FF260746B743124EB959A943157A1F
:1003A0001D40A5400D43BD51D168019C2140009BDB
:1003B0005B0099409C40C368A3430B43C360029C0D
:1003C000210683688B431169C907C90959188160DF
:1003D000610683688B435169C9078909591881608F
:1003E00003B0F0BD0000FEFFF0B583B01E46054629
:1003F000212001272F542C462134002300291FD00F
:10040000012908D003296FD10020E8622863092060
:1004100041014F4871E04E4840780F2202402F467C
:1004200044370123022E23D83C460027EF622F6376
:10043000012E394600D01146102863D3384662E0B9
:10044000E96A002950D0286B81424DD2401A82B20D
:10045000002A49D0082A00D3082202AE2846334693
:1004600000F040FE3078E96A0818E86201233BE0BA
:1004700001090E2917D8002A15D0022A34D13A468C
:100480001F46334801786818DC301288511AB21EB2
:1004900093B2994200DB11468AB22D49891CFFF7BD
:1004A000BEFE3B4620E00F281ED828460193194681
:1004B00000F09EFC264A5078002810D110780628BB
:1004C0000DD1B87D91780140917008D0286D0168F8
:1004D000002904D0A078002801D001988847012085
:1004E0002071B01EE884019B2079002801D01F46AE
:1004F00005E00920410116481F46FFF7EFFE384688
:1005000003B0F0BD0120012E1A4600D00246012A98
:10051000F5D102290CD120880D4909788842EED9FD
:100520002A46DC32511810180830E9622863DEE7E9
:1005300000270029E3D10648C0570028DFD4294608
:100540005431C0B22A46DC320818E8622A63CEE78A
:100550005803002080B500F0B7FC80BDF0B58DB029
:1005600000286BD0002969D0002A67D00446139870
:10057000022863D87B20800020180C902546213566
:10058000204648300A9027468E372D4800262023E3
:1005900008930B91314606921A4600F04CFB242238
:1005A0000C98314600F047FB09204201079225488C
:1005B000314600F040FB01210991080268522E717A
:1005C000E684EE71E66406982065EE702E70EE7497
:1005D0002046D230E062E686204654308021FFF784
:1005E0007BFE7E713E71079B180AF870D81CB870AC
:1005F0007E70089939700C98818011490160124809
:1006000000680A9A907311881174000AD073080A5E
:1006100050740B980168027A0546049603930948C2
:100620000290019409480090FE23204600F0ECFB64
:100630000998000669688A6802438A600DB0F0BDB7
:10064000380300205803002044F2FF0FE9030000A4
:10065000F0B585B01F4601920C4606460C20484373
:1006600030187B2189004518FFF7D2FD0290E888F9
:10067000A988EA888B1A3A46083292B20493039208
:10068000934220DB0A9900912A6801991154421C77
:1006900092B22B689F54821C92B22B689F543A0AE4
:1006A000C31C9BB2314626462C68E25434460E46A3
:1006B000001D80B22A68101800993A46FFF7AFFD76
:1006C000381DE98815E0EA88891A042913DB2968AE
:1006D00081220A54411C89B22A6800235354811C88
:1006E00089B22A685354C01C80B229680B54E88828
:1006F00004214018E8800298FFF78EFD304621461D
:1007000000F04AF804980399884201DA002000E0DA
:10071000012005B0F0BDF0B581B0044606465A365A
:10072000C8071DD07B2080002718FFF771FD054604
:10073000388900280DD0398938684118FA883B89F2
:10074000D21AFFF76CFD3889F988081AF880002062
:1007500038812846FFF760FD0021204600F01CF894
:10076000FFF756FD0546307800280AD02046233092
:10077000007800280BD0206D0168002907D00020E8
:1007800004E0206D0168002901D001208847284637
:10079000FFF742FD01B0F0BDF0B583B00C46054651
:1007A0000C20484328187B2189004618FFF730FDAC
:1007B00032460290F0882F465A372E46D23600280D
:1007C0001FD0284623301168002C019203D10A78EB
:1007D00032704A7872700122A2403B7813438A78C3
:1007E000C9783B7009028918091D019A11810078A6
:1007F000002814D0286D0168002910D000208847F7
:100800000DE091881068FFF767FD002C02D10020F1
:10081000707030700120A04039788143397002989F
:10082000FFF7FAFC03B0F0BD04462320205C00284B
:1008300005D0206D0168002901D0012088470021E2
:10084000204600F0D5FA052000F0FEF972B6206DC2
:100850008168002901D000208847BFF34F8F0348EB
:1008600003490160BFF34F8F00BFFDE70CED00E0CF
:100870000400FA0510B5442402530164443002997F
:100880000A0A427501758180438010BD882281501B
:1008900070475423C154543042707047F0B58BB048
:1008A00004462520205C002800D125E1934B587890
:1008B0000F2800D914E1E08C05901E780AA80521C4
:1008C000039101700020079004900690206D076A44
:1008D000002F0DD00AA8019009A800909A1C1D466F
:1008E0000598C3B220463146B8472B4600282BD185
:1008F00030462C380F280FD87844007940008744C0
:100900002307230707232036202020202007200745
:100910000AA80A210170D9E0B01F06280FD8C046E6
:100920007844007940008744030C630C54497200FA
:1009300099782046FFF7EFFE0AA80499EAE7702E9F
:10094000E6D00AA803990170F0203040402800D07A
:10095000BCE0E56C002D00D1B8E00598C2B29B1C4C
:1009600020463146A84702460AA80270B0E09878AF
:10097000492869D12546E4352646DC362021304613
:10098000FFF7AAFC00F06EF90791069006A908226D
:10099000304600F047F95A484168C9B20909297040
:1009A0000068C0B20009687056480168A9700AA9B9
:1009B00002220A700068000AE87087E0206DC168B2
:1009C000002900D182E098788847801C0AA9087025
:1009D0007CE01A46206DC369002B57D0816900293D
:1009E00054D09078502844D100210120024649E09B
:1009F0000598C0B2022869D39878522866D1D87871
:100A0000002824D0012861D12046FFF70DFF05986A
:100A1000C0B204285AD39878462857D109A9022091
:100A20000870D97801293DD11D46206D0369002B3E
:100A30002FD0A8882146DC310022984709A90870E8
:100A400001062AD0072229E00AA8092162E77B20B3
:100A500080002518A9882868FFF73EFC04982881A3
:100A6000E88007212046FFF756FE204600F016FBDF
:100A700009E001208847002808D0206DC3690020C4
:100A80000122014698470AA8022143E70AA80399D0
:100A900040E707220121022001E00222E9780AABA7
:100AA0001A702B4600290CD1216D4A69002A08D002
:100AB00098882146DC31904709A908700AA90322C9
:100AC0000A70000602D00AA8072123E70AA80278C4
:100AD000002A05D00499009120460B46FFF7B8FD87
:100AE00025462535092041010448FFF7F7FB002181
:100AF0002970204600F07CF90BB0F0BD58030020AF
:100B0000E80F00F044F2FF0F7C23C1547C30130A3D
:100B1000C3708270090A4170704710B514460029ED
:100B200001D104195434029A20461946FFF777FB85
:100B300010BDF0B584B04C7803948C780294CC78D6
:100B400001944C7900948E79CD790C7809796827D5
:100B5000C1556421445401466831CD708E70009CAB
:100B60004C7001466431019CCC70029C8C70039CDB
:100B70004C705178039191780291D1780191567916
:100B80009779D47911781279702542556C22815465
:100B900001467031CC708F704E7001466C31019AF5
:100BA000CA70029A8A70039A4A7059780391D97868
:100BB00002919C785D79DE799F7919781B7978228A
:100BC000835474228154014678318F70CE704D70F9
:100BD000743084700299C1700399417004B0F0BD03
:100BE00080B557480068192101405448102914D194
:100BF0000168802913D10021016009480178032987
:100C00000DD0FF200002022900D08030006801686A
:100C1000406881F308888047FEE70021016080BDBD
:100C2000D0000020002A05D00B780370491C401C1E
:100C3000521EF9D1704780B5002A04D00B461146E8
:100C40001A46FFF75DFB80BD80B50549097800298C
:100C500001D1182100E030214843FFF7D1FA80BDCF
:100C60001001002002480068024909687047C04628
:100C700078F1FF0F7CF1FF0FFEE7FEE77047000001
:100C8000FFF7AEFF20482149016072B606480749C8
:100C9000C022FFF797FA0648016801220A43026062
:100CA000BFF34F8FFFF72CFA000000200000000078
:100CB000000010400E480168C90317D50D490A8885
:100CC000002A02D0501E0880704700220A800A497C
:100CD0000968002902D0104901220A700168022225
:100CE0009143016001680122914301607047C04651
:100CF00010E000E0300300203403002002480349E4
:100D0000016072B67047C046380003406588EDAC9C
:100D1000014801210170704711010020074880211E
:100D20000160074819210160BFF34F8F054806494C
:100D30000160BFF34F8F00BFFDE7C046C000002039
:100D4000540003400CED00E00400FA05F0B581B05A
:100D50000121002844D05622825C034656335B783A
:100D60001B029A18204B9A423AD1027943791B020E
:100D70009A1883791B04C4792406E3189A182FD093
:100D8000037844782402E31884782404C5782D0677
:100D90002C19E318D418240C22D15824045D58309F
:100DA00045782D022C1985782D04C078000640194D
:100DB000001900900020C6430C4D1F7877403E0775
:100DC000B60EAE593F0977403E07B60EAC593E0904
:100DD00066405B1C521EF0D1009A5640721C00D037
:100DE000084601B0F0BDC04646490000F4170000B7
:100DF0008171002907D10168C279002A03D000223D
:100E0000C2710120C8667047F0B587B005930292A1
:100E10000546002068820860294B0B66C8660122DF
:100E2000069253020193CE18130473600324220226
:100E300000928C1863603D239B01CA180392906056
:100E4000C243CA501F23DB01CF18B860CA503F23EA
:100E50009B01CF180497B860CA507F204004029FBE
:100E60007A0010180A682061FF200830019BC850E2
:100E7000009BC850069BDB0713430B600422726083
:100E8000626062680F4B1A40626072681A4072605A
:100E90003A30039A9060059868712F710220287289
:100EA00029601098E8610D98A8610C9868610F9806
:100EB00028820E98E86006980499886007B0F0BD13
:100EC00088280040FFFFFEFFF0B589B004463D20B2
:100ED0008001216808910B18DF680F5081201F26C0
:100EE0003F21DA683A42069301D0DA6897436122DB
:100EF0000D238000F50107958E01FF2102313D464B
:100F000004910D4069426941002D00D00027D200B4
:100F100003929A010292089D2818059007982B18B1
:100F2000A8190790F80640D50193207A042823D009
:100F300003982918608A049AFE320968114008292A
:100F400000D3082141188AB2904208D2029BEB18C4
:100F5000E5681E682E54401C8242F9D10846608222
:100F6000052222726569A069638A01263146A84775
:100F7000014607980660089D002060820120020457
:100F8000059E336813433360336893433360019B9A
:100F90009A6882439A601860069EB0681022904357
:100FA000B0600220207230203060780602D4002920
:100FB00029D02EE0207A022823D1686EC00604D4FE
:100FC0000520207200290FD11BE0042222726569DE
:100FD000A06900211F460B46A847089D002810D095
:100FE0003B4601203860B8603020069A1060906857
:100FF000102101439160A079002808D00120E07100
:1010000007E00220E866204600F048F843E00120AF
:10101000E866D8681860C00709D06569A06904222D
:1010200000211F460B46A847089A002805D00799BB
:10103000C8680860C00715D12DE03B46B86801219B
:101040008843B86039600804059B1968014319603A
:101050001968814319600220D0660799C868086042
:10106000C007D0D02168608A039A8A58049BFE3357
:1010700013401A46082B00D30822821893B29842D4
:1010800008D2029D4919E5680E682E54401C83421F
:10109000F9D11046608209B0F0BD0000F0B50168DA
:1010A0000B680F4A13400B60002343821F24E401A6
:1010B0000D19AB60DD430D513D24A4010E19B76835
:1010C00010229743B7600D513F2292018D50CB669D
:1010D000022202720248401C0A6802430A60F0BD04
:1010E000FFFFFF7F70B58124A50004686019406888
:1010F0000826301AC0B2904201D8042600E001262A
:101100006651904200D31046002809D0092292016E
:10111000A21804460D781560641E491C002CF9D1F4
:10112000187070BD6C4909780840704710B50246C8
:1011300069480078002808D00220002913D00A4B03
:101140001B78002B03D1674B02E0032010BD37232F
:10115000540A08D1934206D2D30180220846194688
:10116000FFF75DF8002010BD1401002080B5014696
:10117000FF200002012900D18030FFF7E7FD40B2D7
:1011800080BD0000002801D1442000E04020034938
:10119000CA68096901238B4013507047D4000020AE
:1011A0004D4908707047C046F0B5A5B004464A489E
:1011B0000078002825D00D460226002900D187E0BE
:1011C00046480078012802D1382C00D280E04448FB
:1011D00002784448411C002A00D108468C4201D3C1
:1011E000A04275D1FF2041008C420CD03D498C4279
:1011F00016D106023046FFF7A9FD00280AD11436A1
:101200000BE0032664E0060230468030FFF79EFDC7
:10121000002801D0012002E094363068401C68614B
:10122000FEF7F6FF0290304A1068072101402F4B6D
:101230001F68062902D00621116000BF390704D0BB
:1012400019680F26B143196000BF196810260E43B4
:1012500020218E431E60002103AE76186A5C327234
:10126000491C8029F8D1224903917F210491214D05
:1012700003A96960204E2E6000BF00BF00BF6968EF
:10128000090F0A2916D10521490701910F221207DA
:1012900024041A496118039103A96960711C29602B
:1012A00000BF00BF00BF69681140019A8E1A711E0D
:1012B0008E4100E0012619683022914319601F60B9
:1012C00000BF0949086000BF0298C0B2FEF7A4FF42
:1012D000304625B0F0BDC0461701002012010020A5
:1012E00016010020FF010000080F03402800034002
:1012F000B6D700000400104004000080B6D80000FB
:1013000080B50248FFF726F980BDC04618010020CD
:101310008CB0EF4A1068022420430121CE433040B4
:101320001060106810230493184310600891C807D8
:10133000E84A90601068302188431060FEF768FF2B
:101340000290E54D00222A60E448417E69600992DE
:10135000AA600078286132273846FEF751FF2868D6
:101360000521059108430794A04328603846FEF7FD
:1013700047FF28680621069108433446304028601C
:101380000298FEF749FFD34A1068800706D090689C
:10139000002803D5106803218843106010680C21D1
:1013A000884310601068C02188431060C8490868ED
:1013B000079E30430394204008600868049A104355
:1013C0000860C748C7490160C7490A68C74B13404E
:1013D0000B60C7490160C749089D0D700068C64889
:1013E000402104910160C54FC54A3846099C2146F9
:1013F000FEF7A6FFC34A38462946FEF7A1FFC24FB3
:10140000C24A38462146FEF79BFFC14A384631465C
:10141000FEF796FFBF490868B04308600868039A62
:1014200010400860BC480460BC480480BC48486068
:1014300062B6B868304305998843B860B86910400F
:10144000B8613D64F020FEF7DBFE049A7868C007BF
:1014500013D0B8680321014304208143B960B869FF
:1014600001218843B8617964F020FEF7C9FE7868ED
:10147000C00701D0422200E00822B86801252843B5
:1014800006998843B860B869A843B861A548027254
:10149000A5480270A54C09982070FF20069006020E
:1014A000374680373846FFF751FC002803D02078B4
:1014B0000421014321703046FFF748FC002803D087
:1014C0002078082101432170059699490A461B326C
:1014D000AF4803689BB2934206D100210160207897
:1014E00001210143217067E04B1C026892B2006841
:1014F00086B22078000703D49E4207D1079A34E0D1
:10150000207840073846049519D555E020784007E3
:10151000039002200490039800280FD48A420AD036
:10152000844800680390059840690292039A9042AB
:10153000029A059803D23846049500E00598F51AFA
:101540006B426B418A42089900D01946002901D0AC
:10155000049A0AE0008978498842049A05D07749BC
:10156000884205D07D20C000099075480999018006
:101570007448754901807548027071480588002DCE
:1015800000D1A3E0724800260670FEF741FE614BD1
:101590009E60196804220A431A601968079A114369
:1015A00019605E490D806B495B4A11601968012220
:1015B0000A431A60FEF730FE002500950195664843
:1015C0005849664A2B46FEF7C9FF0698000664494B
:1015D0000A68824303208007101808603C493039AC
:1015E0000868C00705D00868C00702D05D485E499A
:1015F000C1655E48802101600B950A9526785648A2
:101600003246FFF746F90120410270070AAA002876
:101610000C4604D456480088441CE201E0323007EE
:101620000AAB002807910E4604D405984089461C51
:10163000F301E033484FE0213846FFF77AFA012101
:1016400038460991FFF722F9A1B2B2B23846FFF746
:101650005BFA3720009037496C3180263846324695
:10166000079BFFF707F9022400944248831C384681
:1016700029462246FFF751FA009538462946324658
:101680002B46FEF7E5FF3C48089901703B48017086
:101690003B4801703B4E2E4F2F48FFF7FFF8307844
:1016A000002810D0FEF7B4FD1A4A1168A14311605A
:1016B0001A490D8018490D601168099B9943116002
:1016C000FEF7AAFD3D7038780028E5D0FFF726FB2D
:1016D0003000104028000340080F0340E4F1FF0FE2
:1016E000000001404000004000030140FF0000FFF7
:1016F00040FF008010010020000101400000044074
:10170000DC170000C417000000020440941700001A
:10171000AC17000010E000E034030020300300208C
:101720007FBB0000D4000020CC000020C8000020B7
:101730003142000094FF000059430000FFFF000009
:10174000D2000020C400002046490000D000002044
:1017500011010020110D000018010020E8000020F8
:1017600004E400E0000000200113000000E100E0BC
:101770008AFF0000E800000012010020160100208E
:101780001401002017010020014908607047C0467D
:10179000C000002001000000010000000000000067
:1017A0000000000000000000000000000100000038
:1017B0000C0000000000000000000000000000001D
:1017C0000000000001000000040000000F00000005
:1017D0000000000000000000000000000100000008
:1017E000040000000F0000000000000000000000E6
:1017F00000000000000000006FC75E10DE8EBD20FC
:10180000B149E330BC1D7B41D3DA25516293C661F7
:101810000D549871783BF68217FCA892A6B54BA29E
:10182000C97215B2C4268DC3ABE1D3D31AA830E375
:10183000756F6EF358180000D000002040000000C3
:101840005C010000981800001001002068030000EF
:101850007C010000A9F4FFFF0300320000000540F6
:1018600000000440080000000002044002000000E4
:101870008511000000000000891700006D110000B4
:10188000A91100002D11000025110000A111000078
:08189000000000000000000050
:0200000490501A
:0C0000000002202011B000003A0B14AEEA
:0400000500000101F5
:00000001FF
